:020000040800F2
:100000000010002061BF0208D9B30208DBB3020868
:10001000DDB30208DFB30208E1B3020845E00208DD
:10002000000000000000000000000000E3B3020830
:10003000E5B3020800000000E7B30208E9B30208D4
:1000400049E002084DE00208EDB3020851E0020861
:1000500055E0020859E002085DE0020861E002088C
:1000600065E00208F3B3020869E002086DE00208E7
:1000700071E0020875E0020879E002087DE00208FC
:1000800081E00208A1B40208A7B4020885E00208D2
:1000900089E002088DE0020891E0020895E002087C
:1000A000ADB4020899E002089DE00208A1E0020850
:1000B000A5E0020813B4020819B40208A9E0020876
:1000C000ADE00208B1E00208B5E00208B9E00208BC
:1000D000BDE00208C1E00208C5E00208C9E002086C
:1000E000CDE00208D1E00208D5E00208D9E002081C
:1000F000DDE00208E1E002081FB40208E5E00208C2
:10010000E9E00208EDE00208F1E00208F5E002088B
:10011000F9E00208FDE0020801E1020805E1020839
:1001200009E102080DE1020811E1020815E10208E7
:1001300019E1020841B402081DE1020821E10208A8
:1001400025E1020829E1020825B402082DE1020890
:1001500031E1020835E1020839E102083DE1020817
:1001600038B5040001D1012032BD04F1840568686E
:1001700018B900F022F800F025F800F00DF808B1E9
:1001800000F039F800F034F8012804D000F00DF840
:1001900021F02A011EE032BD242068602068016839
:1001A000490849000160A06A70472068416821F44D
:1001B0009041416020688168704700212970204685
:1001C00000F0B8BAE86B10B9DFF84412E963E96BE4
:1001D00020460847816000F004F8BDE8324000F096
:1001E0005DBC2068016841F0010101602046704754
:1001F000204600F0CDBA204600F0EDBB38B5040033
:1002000001D1012032BD04F18405242068602068FA
:10021000016849084900016022680020002110603F
:100220002368596021688860286C10B9DFF8E411F0
:100230002964296C204688470020E8600021696015
:10024000A860E1662067297032BD284600F06DBCC9
:1002500010B5034603F15404606B20283BD109B16B
:10026000100001D1012010BD19652280628000209C
:1002700060620021E1632120606321699868B1F127
:10028000005F14D1B0F5805F04BF1869002819BF62
:10029000DFF894046062DFF89414616200F012FDEC
:1002A00041F4000100F005FDF8D1002010BDB0F5CB
:1002B000805F04BF1869002807BFDFF8741461620B
:1002C000DFF8B804606200F0F8FC41F0800100F053
:1002D000EDF9F8D1E9E7022010BD38B50346D3F8AF
:1002E0008C0020280AD109B1100001D1012032BDB3
:1002F00000F065F8BDE8384000F05FBC022032BD78
:1003000038B5044604F15405686B1346202854D1CF
:10031000002945D0100043D021652A806A80002042
:10032000E86321216963A86A00283BD0DFF85014F4
:100330000166A96ADFF84C044866A96ADFF8480438
:100340008866A96A00F0C6FC02BF20690028530035
:10035000A86A9BB290F850100A0616D5406F002884
:100360001CBF0068002817D08360A96A206D4A6FFF
:100370001368D8602068AA6A00F12801506F0368EA
:100380001961A86A01F010F805E0216801F128025E
:10039000216D01F074F928B11020E8632021696310
:1003A000012032BD21684020086200F01EF841F0B3
:1003B000800100F025F8F8D132BD022032BD0020C6
:1003C000D8661868DFF8C443A0420CD04068040225
:1003D00009D5186850E8004F054644F0806445E8A8
:1003E00000400028F5D118467047206800F1080148
:1003F00051E8001F00F108037047DFF8B005014025
:1004000043E8001000287047286881684806704754
:1004100091090108D10A01082DE9F04105462A6831
:10042000D36940F60F0610460768D2F8088005F138
:100430005C0407F0200003F0200133420ED10029B4
:1004400014D018B95FEAC80040F18780A16900297B
:1004500000F028812846BDE8F0410847DFF818C9B8
:1004600018EA0C0F04BFDFF81469374275D0DE07B5
:1004700009D5FE0507D54FF0010EC2F820E0626BEA
:1004800042F0010262639A0748BF5FEAC87206D56C
:100490002E6802223262626B42F0040262635A07E3
:1004A00048BF5FEAC87206D52E6804223262626BCA
:1004B00042F0020262631A070DD5002808BF18EA4D
:1004C0000C0F08D0D5F800C00822CCF82020626BB1
:1004D00042F0080262631A0509D57B0107D52F682F
:1004E0004FF400623A62626B42F020026263626B18
:1004F000002A31D039B110B95FEAC80003D5A1692B
:1005000009B128468847606B29688A68510602D479
:1005100010F0280F1BD000F0D7F8FFF775FF11D5AA
:1005200000F0D5F8FCD1606A60B1DFF85418C166FC
:10053000606A01F01CF900280ED0606AC16EBDE847
:10054000F04108472846A26CBDE8F0411047A16C75
:100550002846884700206063A4E0206901286ED106
:10056000D8066CD5F9066AD510201062296888680B
:1005700041062BD5616A0868806C80B20028EBD0F8
:1005800022889042E8DA6080086D812816D000F059
:1005900091F8FCD100F0BBF8FCD100F0ABF8FCD135
:1005A000202020630021216100F09FF821F010013C
:1005B00000F07CF8F8D1606A01F098F802206061E0
:1005C00021886088091A89B2284634E02088618829
:1005D000411A608800281CBF88B2002862D02A46D1
:1005E000106850E8003F054623F4907345E800305A
:1005F0000028F5D1106800F1080353E8003F00F12E
:100600000808DFF8A403034048E800300028F1D1CF
:100610002020206300232361A361136853E8003F77
:10062000156823F0100345E800300028F5D10220BA
:10063000606189B21046226EBDE8F041104718068D
:100640000AD5390658BF5FEA082005D5E16949B3E4
:100650002846BDE8F0410847580611D579060FD560
:1006600000F043F821F0400100F020F8F8D12020FC
:10067000E0620021E1612846E26BBDE8F0411047ED
:10068000180206D5790004D52846E26DBDE8F04190
:100690001047D80148BF002F04D52846A26DBDE8F9
:1006A000F0411047BDE8F08141F4807142E800104C
:1006B00000287047296851E8001F2A6821F48071DA
:1006C00042E8001000287047284600F02BBB29683C
:1006D00001F1080252E8001F286800F1080321F028
:1006E000400143E8001000287047286850E8001FC8
:1006F00002467047286800F1080151E8001F00F128
:10070000080321F0400143E80010002870472868E2
:1007100000F1080151E8001F00F1080349084900F1
:1007200043E8001000287047D10E00082D0F000884
:10073000790E0008DFF8901940F8941FDFF88C2933
:100740004260DFF88C19DFF88C29C1600261DFF8A4
:100750008819DFF8882941618261DFF88419DFF8A0
:100760008429C1610262DFF88039DFF88019DFF87F
:100770008029836041628262704700004F0E00084A
:100780009F0D0008DD0D0008ED0D00080024004657
:10079000F8B504462268DFF85C0900251368A168F3
:1007A000034020690B4361690343E0690B43034342
:1007B00013605168E06821F4405101435160DFF853
:1007C000E419A3698A421CBF206A03439668DFF8D4
:1007D000D809DFF8D8E9064033439360D36A606AEA
:1007E00073A61B0940EA0313DFF8C409DFF8C479D4
:1007F000D3624FF4004372453AD13F6807F00307D4
:10080000032F5AD8DFE807F0025350564FF0010C7F
:10081000E1694FF6F077B1F5004F40F09080BCF100
:10082000000F0FD0BCF1010F00F08180BCF1040F6C
:100830000CD0BCF1080F00F07D80BCF1100F00F06F
:100840007C80A5E001F0B2FB002810D000F0BCF8DD
:100850004A0802EB4002B2FBF1F0A0F11001B942EC
:10086000EFD20740C0F3420007432068C76090E022
:10087000DFF8F0C962450CD13F6817F00C0706D0CD
:10088000042F14D0082F0FD00C2F13D015E0AC4636
:10089000BEE78A4211D1BF6807F00307032F0CD8C7
:1008A000DFE807F01C0502084FF0040C07E04FF0EA
:1008B000080C04E04FF0100C01E04FF0200C8A42CD
:1008C000A6D1BCF1020F09D0BCF1040F0AD0BCF1D3
:1008D000080F15D0BCF1100F15D059E001F074FBD2
:1008E000002856D0616A36F81120B0FBF2F6626833
:1008F00002EB42018E424BD31303B34205D247E0D1
:1009000001F035FBECE71846ECE75008002110EB4E
:100910000620DFF8EC7951EB1661002301F0D4FBDF
:10092000A0F54076BE4233D22168C86031E001F0C4
:1009300042FB89E701F01BFB86E7184686E7BCF11E
:10094000000F0CD0BCF1010F1AD0BCF1040F09D07C
:10095000BCF1080F17D0BCF1100F17D018E001F050
:1009600025FBB0B100F030F800EB5100B0FBF1F026
:10097000A0F11001B9420BD2226880B2D06008E029
:1009800001F019FBEDE701F0F2FAEAE71846E9E7B2
:10099000012504F168000121002341800180C3602A
:1009A00003612846F2BD0000FEFFFFEFFEFF7FEF70
:1009B000010002000400060008000A000C001000FC
:1009C0002000400080000001626A616836F8123041
:1009D000B0FBF3F0704790F828100A0706D50268BC
:1009E0005368816B23F400430B43536090F8281045
:1009F000CA0706D502685368C16A23F400330B4363
:100A0000536090F828108A0706D502685368016B76
:100A100023F480330B43536090F828104A0706D51F
:100A200002685368416B23F480230B43536090F8B2
:100A30002810CA0606D502689368C16B23F4805358
:100A40000B43936090F828108A0606D502689368D5
:100A5000016C23F400530B43936090F828104A066E
:100A600010D502685368416C23F480130B43536024
:100A7000436CB3F5801F05D15368816C23F4C00328
:100A80000B43536090F828100A0606D501684A689F
:100A9000C06C22F4002202434A607047F8B5054654
:100AA00005F184040020E06001F026FC0646286879
:100AB0006FF07E4701680A0711D500973346002280
:100AC0004FF40011FFF7C1FB48B1FFF70EFE21F014
:100AD0008001FFF7EBFDF8D12020606017E0286867
:100AE00001684A0717D50097334600224FF480016A
:100AF000FFF7ABFB78B1FFF7F8FD21F49071FFF73A
:100B0000D5FDF8D1FFF703FEFCD12020A060002125
:100B100021700320F2BD202060602021A160002010
:100B2000E866002129672070F2BD2DE9F0410546F5
:100B30000E4690461F46069C2868C1693140B14266
:100B40000CBF01200020404535D114F1010FF3D036
:100B500001F0D2FBC01B844200D314B90320BDE8CE
:100B6000F081286801684A07E6D5802E18BF402E1C
:100B7000E2D0C169080704D42968C8690105DBD53A
:100B80000CE02A6808201062FFF79EFD05F1840042
:100B90000821C160002202700120E0E729684FF4BB
:100BA00000600862FFF790FD05F184002021C1601C
:100BB00000220270D2E70020D1E750B503469965C4
:100BC00003F15C010A804A80002088619868FF2454
:100BD000B0F5805F04D1186990B940F2FF140FE0BE
:100BE00018B9186960B17F2007E0B0F1805F06D1C5
:100BF000186908B97F2403E03F20888001E00024C1
:100C00008C800020486322240C63186800F10804DB
:100C100054E8004F00F1080644F0010446E80040A3
:100C20000028F2D18868B0F1005F20D18889824223
:100C30001DD39A68B2F5805F04BF1869002803D1FC
:100C40000FF281528A6109E00FF2B9448C61186990
:100C500020B100F032F8FFF727FDFAD100F032F8AA
:100C600041F0805100F025F8F8D1002050BD98687F
:100C7000B0F5805F04BF186900280CD10FF265320F
:100C80008A61186850E8001F024641F02001FFF712
:100C90000DFDF6D1E9E70FF2FD228A6118690028FF
:100CA000EFD000F00AF841F49071FFF7FFFCF8D1A3
:100CB000DBE744E8001000287047196851E8001F7E
:100CC0001A687047186800F1080151E8001F00F128
:100CD000080470470020C866A068B0F5805F7047C0
:100CE00010B500F008F8FCD100F00FF8FCD120217D
:100CF000C0F8881010BD016851E8002F0B4622F0A3
:100D0000C00243E8002100297047016801F1080290
:100D100052E8002F01F1080422F4000244E8002107
:100D20000029704710B500F00EF8FCD100F015F85E
:100D3000FCD1C16E00F026F82021C0F88C100022F2
:100D4000C266426710BD016851E8002F0B4622F4CD
:100D5000907243E8002100297047016801F1080200
:100D600052E8002F01F10804DFF82C160A4044E88D
:100D7000002100297047000001000010200100043C
:100D80003B0E0008012909D1026852E8002F0368D0
:100D900022F0100243E800210029F5D1704710B578
:100DA0000146C86D096D812913D00022A0F8562094
:100DB000016801F1080252E8002F01F1080422F055
:100DC000800244E800210029F2D100F0A5F8FCD10E
:100DD00010BDD0F89810BDE810400847C06DD0F89D
:100DE00094100847516CBDE834400847F8B5C46D0D
:100DF00004F1880528686E68216804F156078A683E
:100E0000110606D5212804D1002038802046FFF79E
:100E100067FF21688868410606D5222E04D100208C
:100E200038812046FFF77EFFA86840F01000A860D8
:100E30002046E969BDE8F4400847C06D0022002360
:100E400000F156010A810B80D0F8A4100847D0F8B1
:100E5000881021290FD1B0F8561001B923E0016D97
:100E600003680A789A62016D4A1C0265B0F8561050
:100E70004A1EA0F856207047D0F88810212911D1B9
:100E8000B0F8561001B90EE0016D03680A88C2F38C
:100E900008029A62016D8A1C0265B0F856104A1E5B
:100EA000A0F856207047026852E8002F036822F02D
:100EB000800243E800210029F5D1016851E8002FA4
:100EC0000B4642F0400243E800210029F5D170476B
:100ED000D0F88810212900D0704730B500F15602B3
:100EE000938A0DE00168CC69250608D5046D257844
:100EF0008D62016D4C1C04651588691E11805B1E96
:100F000099B241B111880029ECD100F035F8FCD13B
:100F100000F002F8FCD130BD016851E8002F0B460B
:100F200042F0400243E8002100297047D0F88810C1
:100F3000212900D0704730B500F15602938A0FE0A6
:100F40000168CC6925060AD5046D2588C5F3080516
:100F50008D62016D8C1C04651588691E11805B1EF5
:100F600099B241B111880029EAD100F005F8FCD10D
:100F7000FFF7D2FFFCD130BD026802F1080151E851
:100F8000002F036803F1080422F4000244E8002162
:100F90000029704738B500F04DF81ED14B6A918892
:100FA000846D0B402370816D4B1C00F049F818D103
:100FB00000F04DF800F060F8FCD100F06AF80BD1B9
:100FC0000023136100F04EF8FCD10168CB69DC0608
:100FD00044BF10230B628FE004E7886940F00800EB
:100FE000886131BD38B500F025F81ED14B6A918873
:100FF000846D0B402380816D8B1C00F021F818D18B
:1010000000F025F800F038F8FCD100F042F80BD1E0
:101010000023136100F026F8FCD10168CB69DC06DF
:1010200044BF10230B6267E0DCE6886940F00800EB
:10103000886131BD00F15C020168136B222B70479F
:10104000836551884B1E538051880029704703687F
:1010500053E8003F046823F4907344E8003100290A
:10106000F5D17047016851E8003F0C4623F01003AA
:1010700044E8003100297047016801F1080353E892
:10108000003F01F108055B085B0045E800310029DD
:101090007047202111630023936100215161016891
:1010A000404B99420CD049680B0209D5016851E8C0
:1010B000003F0C4623F0806344E800310029F5D15D
:1010C0001169012970470000C33E0008FB3C00087D
:1010D000D33E00087B6B00089B6B0008EB6B00089D
:1010E000FF6D0008D7800008EF5B000867810008EB
:1010F0003F7B0008F369FFCF1188126EBDE83840CE
:10110000104700002DE9F84300F0B4F845D1A0895C
:1011100080B96088002842D0A18988423FDA00F077
:10112000F1F89E48A06100F0D3F8FCD137E0616C83
:1011300030468847A806ECD500F096F80870B06DE8
:10114000421C00F0F5F812D0E90748BF5FEAC95227
:1011500000F09EF803D5F90701D500F0E1F800F0A2
:10116000A0F820B1A16C30468847002060636088F9
:101170000028DFD100F0A2F8FCD100F0B3F8FCD1D8
:1011800000F0EFF8D3D100F0DCF844BF1021016289
:101190002188226E30469047CCE700F00DF8BDE87C
:1011A000F183000000240046FFF4FF1100380140E5
:1011B0000024F400E00C0246816941F008018161DD
:1011C000704700002DE9F84300F054F845D1A0899C
:1011D00080B96088002842D0A18988423FDA00F0B7
:1011E00091F86F48A06100F073F8FCD137E0616CB2
:1011F00030468847A806ECD500F036F80880B06D78
:10120000821C00F095F812D0E90748BF5FEAC95286
:1012100000F03EF803D5F90701D500F081F800F0A1
:1012200040F820B1A16C3046884700206063608898
:101230000028DFD100F042F8FCD100F053F8FCD1D7
:1012400000F08FF8D3D100F07CF844BF1021016288
:101250002188226E30469047CCE7FFF7ADFFBDE80E
:10126000F1830000004400403168486AB16D08EA2B
:10127000000070470646306806F15C04B4F804804C
:10128000C5690146D1F800908768216B2229704713
:1012900005D501210162606B40F001006063A80781
:1012A0007047680708D5F90706D532680420106230
:1012B000606B40F002006063606B7047316851E81A
:1012C000001F326821F4807142E800100028704746
:1012D000316851E8001F326841F0200142E80010F7
:1012E00000287047306800F1080151E8001F00F144
:1012F00008032948014043E8001000287047000017
:1013000000FD0F00306800F1080252E8001F00F1F4
:10131000080821F0805148E800100028F2D17047F9
:10132000326802201062606B40F004006063704716
:10133000B2656088411E61803068C56915F0070F8D
:10134000704700212161306850E8001F024621F0FB
:10135000100142E800100028F5D13068C169CA06C2
:101360007047202020630021A16100206061306867
:101370000C4988420CD04068010209D5306850E819
:10138000001F024621F0806142E800100028F5D1DC
:101390002069012870470000FEFFFFEF950F00084D
:1013A000E50F00080024004638B504001EBF04F114
:1013B0004C05A86A002833D0297A2268526901298D
:1013C00003D0022928D1D10326D52A7A012A22D195
:1013D0002978012901D1022032BD00F023F80161F2
:1013E0002068416941F4BA414161A86920B120688F
:1013F000416941F400714161686A20B12068416926
:1014000041F400514161A86A00226946006800F079
:101410002BF800F012F820E04020E860002129704D
:10142000012032BD0121297002222A720223037396
:101430000020E860A86A00217047A86A2268016855
:10144000090C09041160A86A4FF6FC712268036850
:1014500000980B400343D36770472068416941F00F
:1014600001014161002032BD09B1034808600AB1A1
:101470000520106070470000000001F82DE9F84FCA
:10148000044600F039FF0646BCB104F14C050020CB
:101490002870022129722068416941F006014161EA
:1014A00022685069C1070AD500F026FF801B062874
:1014B000F6D31020E86003212972012075E0204650
:1014C0005369016ADFF8E89023F443030B43536147
:1014D0004369C169026906680B4381691343354A50
:1014E0000B43354CDFF8D4A0DFF8D4B0DFF8D4C01C
:1014F000DFF8D4E0DFF8D4804E4518BF46450BD066
:10150000764518BF664507D05E4518BF564503D0DF
:10151000A64218BF96420DD1876AC16A7F1E3F0559
:101520000B43416A07F07C773B43491E090101F4F4
:101530007C710B43316C01F080210B4333640679DD
:101540008368016B06F03F0633430B43C168B1F576
:10155000806F13D10168494518BF41450BD07145D3
:1015600018BF614507D0594518BF514503D0A14266
:1015700018BF914207D143F4806304E0B1F5007FC6
:1015800008BF43F4007302681149546C0C402343B4
:1015900053640368002200219A640268D167406B9B
:1015A0006860E960012028720020BDE8F28F000029
:1015B00050000240D003024050030240D0020240DB
:1015C00050020240D001024050010240D0000240CF
:1015D000C031E03C70B5044600F08EFE0646ACB16A
:1015E00020684169050B2D0341F006014161206827
:1015F0004169C8070CD500F07FFE801B0628F6D392
:1016000004F14C001021C16003220272012070BD60
:10161000216800200022086023685A61216808645C
:101620002068002142642268002091642168002221
:10163000C8642068002102652268D1676868226852
:101640000121503AD20902F01F029140884368609C
:1016500021684FF4FE400022C86004F14C010020D4
:101660004861C861486208698A610A628A6200B199
:101670000A6100204860CA6008720A7070BD70B5C7
:1016800004002AD004F14C052878012801D1022059
:1016900070BD012028702E7A012E1AD102202872E6
:1016A0000026EE60204600F053F92068416941F4BD
:1016B000BA414161A86920B12068416941F40071D3
:1016C0004161686A20B12068416941F4005141617B
:1016D00005E04020E86000212970012070BD2068ED
:1016E000416941F001014161002070BD70B50446BF
:1016F00000F002FE06462CB304F14C05287A0228BD
:1017000002D02021E9601BE02068416941F004011A
:10171000416105202872206801698A0414D400F010
:10172000EBFD801B0628F6D3E868032140F010008B
:10173000E86029722879010602D5A96A0120087398
:1017400000202870012070BD416941F00201416113
:101750000420287222684FF4FE410120D1602872D3
:101760002979080600F0C8F80020287070BD30B153
:1017700000F154010A78022A03D020204860012099
:10178000704704220A700068416941F4005141F039
:10179000040141610020704738B504462068010B00
:1017A0000903C968A0F15002D20902F01F02D1401A
:1017B000C90740F1A080016904F14C054A0509D52B
:1017C00041694A0506D54FF48061C160E86840F080
:1017D0000100E860206801690A0509D541690A0528
:1017E00006D54FF40061C160E86840F00200E8608F
:1017F00020680169CA0409D54169CA0406D54FF4B5
:101800008051C160E86840F00400E8602068016928
:101810004A0409D541694A0406D54FF48041C160A4
:10182000E86840F00800E860206801698A0509D589
:1018300041698A0506D54FF40071C160A96909B1F3
:1018400020468847206801698A0420D541698A04B6
:101850001DD54FF40051C160287A042811D12068A9
:10186000416921F40051416100F04EF800F044F864
:10187000296A0020287000293DD02046BDE8344068
:10188000084705202872696A09B1204688472168FF
:101890000869C2051FD54869C2051CD5287902060A
:1018A0000BD5C86F002804BF886C002809D101211E
:1018B0002972A96A0120087303E0886C08B9012124
:1018C000297221684FF440700022C86069692A704B
:1018D00009B120468847E86868B100F015F802D5DC
:1018E000A86A0121017300212970E96919B1204614
:1018F000BDE83440084731BD05D5A86A0121017310
:1019000022680021916470472068416941F002011A
:1019100041610120287229790806704708B9012021
:10192000704702680123100B503AD20902F01F02DF
:10193000000303FA02F2CB0608D501F011011129C8
:1019400041680CBF0A4321EA02024260002070474E
:1019500010B50068846C63F30F0484644FF4FE4395
:10196000C360C164026510BD2DE9F84F040044D086
:10197000DFF80477D7F81C90D7F828A0207809F072
:101980000C090AF00305C1072AD5B9F1080F04D0E4
:10199000B9F10C0F08BF032D62D1606800282CD06C
:1019A000B9F1080F1CD13968A068012221F488110F
:1019B000014341F4803139603868DFF8DC16DFF824
:1019C000D436000D00F001008240B1FBF2F1DFF8E7
:1019D000C0261160186800F095FC002840F0E981ED
:1019E0002078810712D5B9F1000F04D0B9F10C0F9E
:1019F00008BF022D57D12069002800F0DA8138692C
:101A0000616920F4F81040EA014038612078DFF87D
:101A10008C86DFF88C56010740F1C08028684FF0B3
:101A2000000A41070AD428684FF0010A40F0040078
:101A30002860296801F0040100910098D8F800108E
:101A4000C80751D400F0DDF90646D8F80000C107F8
:101A50004AD400F051FC801B0328F6D303207FE119
:101A6000606888B13A68A16822F48812104308437C
:101A700000F0C4F9064638688103B1D400F03CFC9C
:101A8000801B6528F7D3E9E7386820F4881000F058
:101A9000B5F9064638688103A2D500F02DFC801BFD
:101AA0006528F7D3DAE7206978B1396841F48071A5
:101AB000396000F021FC0546386841059FD400F0EC
:101AC0001BFC401B0328F7D3C8E7386820F480705C
:101AD00000F094F905463868410597D500F00CFCF4
:101AE000401B0328F7D3B9E7EE6DA069002843D067
:101AF00040011AD5E16906F08050814211D03101D0
:101B00000FD526F08066EE6500F0F6FB8346E86DA3
:101B1000010106D500F0F0FBA0EB0B001528F6D371
:101B20009CE7E16926F080560E43A0690643EE6506
:101B300000F0E2FB0090B346A669E86D10EA460F9C
:101B400006D100F0D9FB0099401A1528F4D385E797
:101B500086F010562BEA060BC5F85CB000F0CCFB03
:101B60008346E86D10EA460F16D000F0C5FBA0EBE7
:101B70000B001528F5D371E726F01056EE6500F03E
:101B8000BBFB0646E86D10F0904F05D000F0B4FBAB
:101B9000801B1528F6D361E700F028F92178480763
:101BA0006CD529684FF0000A48070AD429684FF01D
:101BB000010A41F004012960286800F00400009047
:101BC0000098D8F80010C8070CD400F01AF906469F
:101BD000D8F80000C10705D400F08EFB801B032855
:101BE000F6D33BE7E06841F2893828B3E96D21F08C
:101BF00080010843E86500F07FFB0646E86D810739
:101C000005D400F079FB801B4045F7D326E7207B05
:101C1000010608D5E86D01052ED400F06DFB801B90
:101C20004045F7D31AE7E86D010525D500F064FBC0
:101C3000801B4045F7D311E7E86D20F08100E8658F
:101C4000E86D20F00400E86500F056FB0646E86DFC
:101C5000810705D500F050FB801B4045F7D3FDE61A
:101C6000E86D010608D5E86D010505D500F044FBD7
:101C7000801B4045F7D3F1E600F0B8F8206A002851
:101C80006DD0B9F10C0F6DD00228386820F080704B
:101C9000386053D100F030FB0546D7F800A000F0C3
:101CA0002BFB401B0328E6D25FEA8A10F5D4626A58
:101CB000032A07D14FEA1A51DFF8DC0301F00101D2
:101CC000C84001E0DFF8C403A36ADFF8D813B0FB13
:101CD000F3F088422CBF0C210021D7F82890DFF8C0
:101CE000C8035B1E00EA09000243114341EA0321D5
:101CF00041F48021B962E06A216B401E491E40EA2E
:101D00004120616B491E40EA0140A16B491E40EA37
:101D100001607863E06B10B100F062F8B862386877
:101D200040F0807000F06AF804463868810116D4EB
:101D300000F0E2FA001B0328F7D38FE600F0DCFA8C
:101D400004463868810105D500F0D6FA001B032847
:101D5000F7D383E6B86ADFF854130840B86200206E
:101D6000BDE8F28F012824D0B86A796B636A00F06D
:101D700003029A4201BFC0F30220A26A521E90429F
:101D800017D1E26AC1F30800521E904201BFC1F3AD
:101D90004620226B521E90420BD1626BC1F306406B
:101DA000521E904201BFC1F30660A16B491E8842DA
:101DB00001D00120D4E7B86BE16BC0F3CC008142C5
:101DC000CDD0B86A20F01000B86200F095FA054650
:101DD00000F092FA401BFBD0E06B00F001F8BDE789
:101DE000C000B863B86A40F010007047BAF1000F45
:101DF00003D0286820F0040028607047386000F0A5
:101E00007BBAD8F8001041F00101C8F8001000F0CA
:101E100073BA2DE9F0410400884637D0DFF89062AC
:101E2000306800F00F00404509D23168090948EADE
:101E300001113160306800F00F00404526D1217853
:101E4000880609D5DFF840221368A169E06923F00C
:101E500017030B43034313602178DFF81C52C807B4
:101E600042D52868616803290CD180016BD5E969E6
:101E700001F00C010C290CD0A96A012060F3155166
:101E8000A96206E0022902D1800302D45BE0410589
:101E900059D5EA696068920840EA8202EA6100F076
:101EA0002BFA07466068E96901F00C01B1EB800F7D
:101EB00008D000F021FAC01B41F289318842F1D3E9
:101EC000032052E003280FD1A86A20F48010A862F2
:101ED00000F012FA0746A86A410205D400F00CFA95
:101EE000C01B0B28F7D3EBE7296A22680020930771
:101EF00004D5A068C90840EAC1010120530704D5F0
:101F0000E06821F0700101430120120705D5206926
:101F100021F4E06141EA001100E000B1296220787B
:101F2000C10644BF60696862316801F00F018845ED
:101F30000BD23068000948EA00103060316801F0C7
:101F40000F01414501D001200FE000F010F82A6A8E
:101F500058494F4B02F00702895CC84018604D4851
:101F60000068BDE8F04100F0CDB9BDE8F08142491C
:101F7000C86910F00C0001D144487047082818BF08
:101F800000F036B809684448090D01F00101C84065
:101F9000704780B5FFF7EBFF47490968454A3C4B5E
:101FA00001F00701515CC840186002BD80B5FFF721
:101FB000F0FF414A0CE080B5FFF7EBFF3E4A1368A3
:101FC0003E49C3F3022207E080B5FFF7E2FF3C4A37
:101FD00013683A49C3F30212895CC84002BD10EE8F
:101FE000100A491CB0FBF1F010BD3648046807E048
:101FF00010B5FFF7FAFFBCEEC00AC4F30661EEE7C6
:102000001D48416BC1F30801491C00EE101A816A9A
:10201000B8EE400AC1F30222521C00EE902AF8EEFC
:10202000600ACA0643BF826BC2F3CC0201EE102ADB
:102030009FED121A01F00301B8EE411A022902D0F5
:10204000032903D00DE0DFED0E1A0CE00068124901
:10205000000D00F00100C14001EE901AF8EE611A87
:1020600001E0DFED061AC1EEA00ADFED061A01EE6F
:10207000210A20EE800A7047000C02460000000092
:102080000024744B00000039000E02460024F400C6
:1020900004450020B84400200048E8012808024612
:1020A000940C024601127A00E0F8FFFFFCFFF8FFF3
:1020B00000200240CC010108200C024628DF020863
:1020C000240C0246340C0246BBBBE1B1B2F5803FA2
:1020D00080F07E80022A1ED98C46B1FBF2F102FB11
:1020E00011C31B0443EA1043B3FBF2FC02FB1C3395
:1020F00080B240EA0343B3FBF2F002FB103240EA45
:102100000C4000237047022A05D98446B0FBF2F048
:1021100002FB10C270474AB105D100F00102490824
:102120005FEA3000704700220023704700F034B9A6
:102130000B000200002100207047904271EB030C5D
:10214000F6D3B3F5803F2FD2F0B5B3FA83F7B1FAE7
:1021500081F4A7F10F0E3D1B5340CEF1200602FA89
:102160000EF2F3415340B5F10F0746D80F3C2C4413
:102170004140C4F12006A040F1414140B1FBF3F6DB
:1021800003FB1611A2FB0645001BA94102D2761ED5
:102190008018594180EA010221FA0EF362FA0EF228
:1021A00000215A403046F0BD30B4B1FBF3FC03FBD4
:1021B0001C11A2FB0C45001BA94103D2ACF1010C80
:1021C0008018594130BC02460B46604600217047DA
:1021D000B2F1807F65D3F0B5B2FA82F7B1FA81F43B
:1021E000C7F10F063D1B22FA06F307F1110EF2416B
:1021F00020355A40B5F10F07B8D94140C4F1200647
:10220000A040F1414140B1FBF3FC03FB1C11A2FBD8
:102210000C45001BA94103D2BCF1010C80185941A7
:102220000F2F12D30F3FC90341EA5041B1FBF3F620
:1022300003FB1611A2FB0645D4EBC030A94102D224
:10224000761E8018594146EACC3C07B34140C7F19D
:102250002006B840F1414140B1FBF3F603FB1611F3
:10226000A2FB0645001BA94102D2761E80185941E7
:1022700080EA010221FA0EF3C7F1200462FA0EF29D
:102280000CFA07F05A402CFA04F13043F0BD80EA12
:10229000010221FA0EF3002162FA0EF260465A4062
:1022A000F0BD8C46B1FBF2F102FB11C31B0243EA05
:1022B0001063B3FBF2FC02FB1C331B024CEA002050
:1022C00043EA1063B3FBF2FC02FB1C331B024CEA33
:1022D000002043EA1063B3FBF2FC02FB1C331B0239
:1022E0004CEA002043EA1063B3FBF2FC02FB1C3211
:1022F0004CEA00200023704701484068704700BF47
:10230000B0440020F8B504461F4D2878002100286D
:102310002ED01E4A12681E4B1E68770702D54FF456
:102320007A710DE01B4B1B6813F4400306D0B3F524
:10233000800F08D0B3F5000F0ED015E04FF4FA511E
:10234000B1FBF0F00EE04FF47A72B2FBF0F24FF412
:10235000FA43B3FBF2F107E04FF47A71B1FBF0F00E
:102360004FF40042B2FBF0F1084600F071F808B1FA
:102370000120F2BD002221464FF0FF3000F027F887
:10238000AC600020F2BD00BFB04400200445002036
:1023900010E000E0E00C024670478268521C826048
:1023A000426832B10268531C036011704168491ED3
:1023B00041607047474B19684FF6FF020002114019
:1023C00000F4E0600843444908431860704770B562
:1023D000404B1C68C4F302230124C3F10705052DFB
:1023E0002EBF0F2504FA05F56D1E1E1D072E34BFE6
:1023F0000023DB1E2940994004FA03F35B1E1A40B8
:1024000011430901020002D43448815470BD344B99
:1024100002F00F021A4402F8041C70BD010007D438
:10242000012200F01F018A402E4B400943F8202072
:10243000704701000BD4012200F01F018A402A4B93
:10244000400943F82020BFF34F8FBFF36F8F7047D1
:10245000401EB0F1807F07D22449486000228A6084
:102460000B6843F003030B60B0F1807F8041C043F1
:10247000C00F7047010007D4012200F01F018A40FD
:102480001B4B400943F82020704700001949174AA8
:1024900004281ED8DFE800F00811141D030010689E
:1024A00040F0040010607047136823F004031360C9
:1024B000086820F44000086070471368012001E0BC
:1024C0001368022023F0040313600A6860F3975234
:1024D0000A6070470CED00E00000FA0500E400E03F
:1024E00018ED00E000E100E080E100E010E000E035
:1024F00000E200E0E00C02462DE9F14FB0B0924658
:1025000004910DF142013A9A2B9199464A700020AC
:102510000AE01AF8011B0498309A904700280490AA
:1025200000F06A860D98401C0D909AF8000050B19A
:102530002528EED1002100220791089209910A92E4
:102540000B910C9204E00D9800F058BE41F001018F
:102550001AF8010F2028F9D023280CD02B2804D0FA
:102560002D2805D0302809D00BE041F00201EFE71B
:1025700041F00401ECE741F00801E9E741F0100106
:10258000E6E72A280FD1D9F8002052F8040BC9F841
:10259000002000280F9003D540420F9041F0040125
:1025A0000AF1010A14E00F92DFF8583C0AE00F9894
:1025B000984205DA00EB800402EB4402303A0F92B5
:1025C0000AF1010A9AF80020A2F130000A28EED39D
:1025D0009AF800002E2803D04FF0FF320E9229E027
:1025E0001AF8010F2A2809D1D9F8000050F8042B55
:1025F000C9F800000E920AF1010A1BE02D280CBF59
:102600000AF1010A002000220E92DFF8F84B0BE0DD
:1026100040B90E9AA24205DA02EB820503EB4503AC
:10262000303B0E930AF1010A9AF80030A3F1300210
:102630000A2AEDD3ADF840100FF6CC309AF800100E
:1026400000F0F8FE08B11AF8010B8DF842009DF871
:102650004200682805D19AF8000068280CD1622150
:1026600006E06C2804BF9AF800006C2804D17121A0
:102670008DF842100AF1010A12A806901AF801BB5F
:10268000BBF125012CD01C3900F0D681091F02298D
:1026900040F2D281133900F0E184093900F0CC8195
:1026A000891E00F07685491E00F02385491E022907
:1026B00040F2C281091F00F01C85491F00F03181E2
:1026C000491E00F0CB84491E00F0D880C91E0DD0F1
:1026D000891E00F0C384C91E00F0C08400F064BDF0
:1026E00025238DF84830012100F069BDD9F800009C
:1026F00050F8044BC9F80000002C059440F0AB8062
:102700002B994878002800F0A1804FF0FF340FF695
:10271000003000F0A1FE201A40F06E8500F050BDA0
:1027200001236A4602A9304600F042FE002840F02C
:1027300063856D1EF4D13096079D12AF75B1309E42
:1027400017F8012B02A9304600F022FE002801D420
:102750006D1EF5D10028309640F04E850A9D302040
:10276000002D8DF800000CDD309E01236A4602A981
:10277000304600F01DFE002840F03E856D1EF4D16D
:102780003096059F089D75B1309E17F8012B02A960
:10279000304600F0FDFD002801D46D1EF5D1002863
:1027A000309640F029850B9D3020002D8DF80000DB
:1027B0000CDD309E01236A4602A9304600F0F8FD88
:1027C000002840F019856D1EF4D1309605980899BF
:1027D000099D471875B1309E17F8012B02A93046A4
:1027E00000F0D6FD002801D46D1EF5D100283096EA
:1027F00040F002850C9D3020002D8DF800000CDD8E
:10280000309E01236A4602A9304600F0D1FD00281F
:1028100040F0F2846D1EF4D130969DF840004107DF
:102820007FF583AE2020002C8DF800007FF77DAE71
:10283000309D01236A4602A9284600F0B9FD002810
:1028400040F0DA84641EF4D130956EE60FF6C030A5
:10285000059000F0B5BC0E9D002D04D5204600F07B
:102860001BFE044607E02A46204600F01FFE002813
:1028700014BF041B2C46089400F0A2BCD9F8001029
:1028800051F8040BC9F8001020F00004002121F0D9
:10289000FF3512ABCDE902450593DDE90223069928
:1028A0003C2413B90AB90E98A0B102F00F05641EBA
:1028B00030353A2D08DA12090D5542EA03721B0928
:1028C00008BF002A02D105E02735F4E705980D1965
:1028D000A842EAD308190590C4F13C020E98089268
:1028E00082420ADABDF84010821A4FF6EF700140BA
:1028F0000A92ADF8401000F063BC002840F16084FB
:102900009DF8400000F01400102840F059840F9BFF
:1029100007990A985B1A1B1A9A1A002A40F35084E6
:102920009AE32B99487820B14FF0FF340FF6B0208E
:10293000EFE69DF84200622860D0682817D06A2828
:102940003FD06C2806D0712847D074282CD07A2824
:102950001DD062E0D9F8001051F8040BC9F800103E
:10296000002866D14FF0FF340FF68C20D1E6D9F85D
:10297000001051F8040BC9F8001020B94FF0FF34D3
:102980000FF67420C5E60D99018000F019BCD9F846
:10299000001051F8040BC9F80010002849D14FF07D
:1029A000FF340FF65420B4E6D9F8001051F8040BA8
:1029B000C9F8001000283CD14FF0FF340FF6382042
:1029C000A7E6D9F8001051F8040BC9F8001080B937
:1029D0004FF0FF340FF620209BE6D9F8001051F895
:1029E000040BC9F8001020B94FF0FF340FF608208F
:1029F0008FE60D9AD317C0E90023E1E3D9F8001060
:102A000051F8040BC9F8001020B94FF0FF340FF64D
:102A1000E8107EE60D990170D2E3D9F8001051F864
:102A2000040BC9F8001020B94FF0FF340FF6C8109E
:102A30006FE60D990160C3E3D9F80020D21D22F0A2
:102A40000702C9F80020D2E900010832C9F80020C5
:102A5000CDE90201C80F02D007982D210AE0BDF888
:102A60004000810702D507982B2103E0C00705D558
:102A70000798202112AA1154401C079012A8079908
:102A8000DDE9024543184BF020006128059321AE93
:102A90000BD00E98002802D506200E9005E001BF4D
:102AA0004BF02000672801210E91DDE9020148006A
:102AB0004015401C0A460DD109030BD0ABF161074C
:102AC00003201A2F089002D20FF648110DE00FF6DE
:102AD00048110AE070B912030CD1ABF16107032071
:102AE0001A2F08901CD30FF638110322184600F055
:102AF00009FD65E3DDE902016A4600F05DFDCDE90F
:102B000002014BF02000612811D10598302101709D
:102B1000821C0592BBF1610F0CBF7821582102E0A5
:102B20000FF6F801E1E741700798801C0790DDE996
:102B3000020120F0000231F0004308BF002A02D158
:102B40000025002445E14BF02008B8F1610F40F06A
:102B500095800E98002847BF21210191401C0190CB
:102B6000019F7F1C2046294600220023DDE9024503
:102B700000F05AFD38BF85F0004500998DF884209B
:102B8000091F002F00910DF1850034DD0646204617
:102B900029460022002300F061FD2BD21C2200F008
:102BA00077FD04460D4600F015FEFF1F002F8046FE
:102BB00009DD00F02FFE02460B462046294600F0B4
:102BC000F3FE04460D46F01D0721B8F1000F0CDDA1
:102BD000491E5EBF08F00F0200F8012D4FEA2818C9
:102BE000F3D502E0002200F8012D491EFAD5C61DDA
:102BF000002FCCDC30460DF18501401A01990DF112
:102C0000850605468842C8BF0D46002D2FD4854253
:102C100006DA0DF18500415D0829A8BF0F2000DA12
:102C20000020294621AA0A4400E06D1E12F801394D
:102C3000491E8342F9D00F2804D10DF18500425C72
:102C4000521C4254002904D50098001D21AE6D1C71
:102C50000090681E0BD431180A783032D3B23A2B68
:102C6000A4BF5A443A3A401E01F80129F4D50E98FF
:102C7000002840F1AD80691E0E91A9E00099DFF8AF
:102C8000002747F29750414391FBF2F2009225F062
:102C90000045C2F10702002A04DD2046294600F063
:102CA0004BFB0BE052420020DFF8D81600F044FB4B
:102CB00002460B462046294600F0EAFE04460D4631
:102CC000B8F1660F06BF009F0A3706270E983F1817
:102CD000142FC8BF142730208DF884000DF1850013
:102CE00000E03046002F35DD06462046294600F03C
:102CF000F3FF01460A4606F1080304200A26B2FB48
:102D0000F6F606EB860EA2EB4E02303203F8012CEB
:102D10000A22B6FBF2F202EB820EA6EB4E0630362A
:102D2000401E03F8026DE9D1083F002F03F10806A9
:102D3000D7DD084600F0E2FF02460B462046294652
:102D400000F032FE0022DFF8403600F0E5FF0446D6
:102D50000D46CAE70DF18501401A0DF1850604E024
:102D60000099491E401E0091761C31783029F7D019
:102D7000B8F1660F02D10099491C04E0B8F1650F63
:102D80000CBF012100210E9D4D19A842B8BF451E60
:102D9000002D1DD4854204DA705D3428C8BF392067
:102DA00000DC30202946721E531800E06D1E13F817
:102DB0000149491E8442F9D0392802D1705C401C77
:102DC0007054002904D50098401C16466D1C0090D4
:102DD000009C01F077F8406A0778DDF8388028B267
:102DE000002802DC01250FF23C664BF0200066282B
:102DF00008BF641C16D0672846D120B210F1040F1A
:102E000048DB404546DA9DF84000641C010703D4C6
:102E100028B24045D8BF804620B2B8EB000848BF72
:102E20004FF000080FFA84FBBBF1000F00F3B580F0
:102E30000898411C0891302205990A54B8F1000FF6
:102E400003DC9DF84000010704D50898411C089157
:102E500005990F5418EB0B0FB8BFC8F1000424B24A
:102E60006042A0442AB20B909045B8BF4546059BEE
:102E700008982DB209952A463146184400F042FBC5
:102E8000A8EB05000C90D2E0BBF1610F17D14FF019
:102E9000700B19E028B2404504DA9DF840100A078B
:102EA00058BF8046B8F1010848BF4FF00008BBF199
:102EB000670F14BF4FF0450B4FF0650B04E0BBF1FB
:102EC000410F08BF4FF0500B0898411C0891B8F112
:102ED000000F059916F8012B0A5403DC9DF84000F9
:102EE00001071AD50898411C0891B8F1000F0599FF
:102EF0000F5412DD6D1E28B28045B8BF45460598B7
:102F0000089B2AB23146184400F0FCFA08992DB209
:102F100069180891A8EB05000B90059808990844DA
:102F200021B2002980F800B003D42B224270821C09
:102F300004E02D2242700C46821C644200212CAB1E
:102F400020460AE004460A2094FBF0F000EB8005DE
:102F5000A4EB450403F8014B491C00B20028F1DC46
:102F6000012906DC4BF02000652804BF302002F860
:102F7000010B00292CAB08D1302002F8010B06E030
:102F8000491E585C303002F8010B0029F8DC059925
:102F900008980844121A099249E028B221B28842DE
:102FA0001CDA0598089B2AB23146184400F0AAFAA8
:102FB00008992DB269180891ABEB0500B8F1000F24
:102FC0000B9003DC9DF84000020704D50598475498
:102FD0000999491C0991CDF8308028E00598089B93
:102FE00022B23146184400F08DFA08982D1B58443F
:102FF000B8F1000F089003DC9DF840100A0703D5D4
:10300000411C089105990F5428B28045B8BF454628
:103010000598089B2AB206EB0B01184400F072FADF
:1030200008982DB228180890A8EB05000B909DF881
:10303000400000F01400102840F0C280079A089960
:103040000B988A18099982180C988A1882180F9878
:10305000824280F2B580821A0A92B1E09DF8420065
:10306000622808D068280ED06A2814D06C281FD097
:10307000712810D01CE0D9F8001051F8040BC9F8E1
:103080000010C0B21AE0D9F8001051F8040BC9F8CA
:10309000001080B212E0D9F80020D21D22F0070201
:1030A000C9F80020D2E900010832C9F8002006E082
:1030B000D9F8001051F8040BC9F800100021CDE92F
:1030C00002019DF8400001075AD5DDE90223002BDB
:1030D00008BF002A54D04BF02000782850D1079820
:1030E00012A930220A54401C431C079301F800B077
:1030F00046E09DF84200622808D068280ED06A2871
:1031000014D06C281FD0712810D01CE0D9F8001002
:1031100051F8040BC9F8001040B21AE0D9F80010B9
:1031200051F8040BC9F8001000B212E0D9F80020E1
:10313000D21D22F00702C9F80020D2E900010832AE
:10314000C9F8002006E0D9F8001051F8040BC9F8BE
:103150000010C117CDE90201002902D507982D21E1
:103160000AE0BDF84000810702D507982B2103E053
:10317000C00705D50798202112AA1154401C0790BA
:1031800012A807990144059102A8594600F04EF88B
:1031900016E001200790D9F8000050F8041BC9F888
:1031A00000008DF848100BE025210122BBF1000F33
:1031B0008DF84810079203D08DF849B0022107918D
:1031C0000F9A07980A990C9C121A0898521A0B9990
:1031D000121A0998521A121A9DF84000141B41073E
:1031E0003FF5AAAA2020002C8DF800007FF7A4AAA2
:1031F000309E2546FFF794BA4FF0FF3031B0BDE85E
:10320000F08F0000CBCCCC0C686A6C747A4C000058
:103210007072696E74665F733A2062616420257310
:1032200020617267756D656E740000002DE9FC43C6
:1032300004466F29256908BF082605D041F0200003
:10324000782814BF0A261026D4E900233C2790468C
:103250009946642918BF692905D1002B03D5D8F1F7
:10326000000869EB4909B9F1000F08BFB8F1000F78
:103270000CD1206B50B9082E3AD194F838000107D0
:1032800036D530203B2785F83B0031E08DF8001023
:10329000404649463246F317FEF716FF3032D0B2A9
:1032A0007F1E3A2801970EDAEA55404649463246D3
:1032B000F317FEF709FF80465FEA010908BFB8F17E
:1032C000000F05D108E09DF800001218513AEBE715
:1032D000E068E9198842DBD3082E09D194F8380058
:1032E000010705D5E85D302802D07F1E3020E85563
:1032F000C7F13C02A261E919E160206B824208DA61
:10330000821A22624FF6EF70218F01402187BDE8BB
:10331000F38300280ED594F8380000F0140010282C
:1033200008D1636B6169206A5B1A1B1A9A1A002A1A
:10333000C8BF2262BDE8F3832DE9D04306460F469D
:1033400014464FF00008DFF8449012E0E00707D57C
:1033500042464B463046394600F0DEFC06460F46F4
:103360004046494642464B4600F0D6FC6410804633
:103370008946002CEAD130463946BDE8D0830000AA
:10338000A08601000000F03F84D797410000244050
:1033900010B503460C461146A0689847A06020B1BE
:1033A000E06A401CE062002010BD4FF0FF3010BD0D
:1033B000F8B505460E4617461C4600205CB117F8C6
:1033C000011BB068A847B06030B1F06A401CF062E1
:1033D0000020641EF3D1F2BD4FF0FF30F2BD0000BB
:1033E0007072696E74665F733A20256E206469732B
:1033F000616C6C6F776564007072696E74663A20F8
:1034000062616420256E20617267756D656E74005F
:10341000000000006E616E004E414E00696E660055
:10342000494E46003000FA00960064004B0032001E
:103430001E001400C9B202788A421AB11CBF10F8EB
:10344000012FF9E718BF0020704749F62C40C2F25F
:10345000000090F83800704780B500B906A0054913
:103460000B681BB122220021984701E000F02EFDDD
:10347000222002BD14A20020636F6E737472616912
:103480006E742068616E646C65723A2062616420BB
:103490006D6573736167650000F1010310F8011B2E
:1034A00011B110F8011BFBE7C01A7047C9B28307BE
:1034B00006D0521E22D310F8013B9942F7D11FE0EB
:1034C000083A13D302F1040241EA012141EA014121
:1034D00050F8043B121F21BF4B40A3F1013C2CEAE2
:1034E000030C1CF0803FF3D0C9B2001F083210F863
:1034F000013B521E28BF91EA030FF8D818BF0120E4
:10350000401E704762B38B0708D0521E11F8013B72
:1035100000F8013B00F024808B07F6D1830740F0D0
:10352000208000BF103A07D330B4B1E83810103A09
:10353000A0E83810F9D230BC530724BFB1E8081016
:10354000A0E8081044BF51F8043B40F8043BD20700
:1035500024BF31F8022B20F8022B44BF0B780370F4
:103560007047121F17D35B0009D151F8043B20F8B4
:10357000023B1B0C121F20F8023BF6D20BE051F865
:10358000043B00F8013B1B0A20F8023B1B0C121FF6
:1035900000F8013BF3D238BF121D521E24BF11F8B0
:1035A000013B00F8013BF8D8704749F62C40C2F2C5
:1035B000000090F83900704710B5144600F002F88A
:1035C000226010BDC1F30A5343B14A0012F5001F37
:1035D00028D2A3F2FE32A1EB0251704750EA410C0F
:1035E00020D001F0004C31EA0C01B1FA81F204BFA5
:1035F000B0FA80F3D2180B3AB2F120032CBF00FAD4
:1036000003F1914041EA0C013EBFC2F1200C20FAC7
:103610000CF319439040524240F2FD33D21A01EBB1
:10362000035170470022704741EA030C50EA4C0CEA
:1036300052EA0C0C4FF4001C09D307D01CEB410FCD
:103640009CBF1CEB430F8B4208BF824270471CEBB0
:10365000430FFBD8994208BF9042704741EA030CE0
:1036600050EA4C0C52EA0C0C4FF4001C09D307D062
:103670001CEB410F9CBF1CEB430F994208BF9042CB
:1036800070471CEB410FFBD88B4208BF824270474A
:10369000124254D440F2FF7C1CEA11530FD0634510
:1036A00031D09B1863453CBF01EB0251704701F0DC
:1036B000004141EA0C510020AFF30080704750EA0E
:1036C000410320D001F0004C91EA0C011CD0B1FA6A
:1036D00081F30B3B9A420DD9D21A994051EA0C0161
:1036E000C3F1200C20FA0CFC61449840531C40F2BA
:1036F000FF7CD7E7914041EA0C01C2F1200C20FA8F
:103700000CF3194390407047B0FA80F31533202B27
:10371000E0D3202AEED3203A203B9A4209D9D21A8C
:1037200000FA03F141EA0C010020531C40F2FF7C37
:10373000B8E700FA02F141EA0C010020704752425A
:1037400040F2FF7C1CEA11530DD06345DBD0B2EB95
:10375000030C3CBFA1EB025170470CF1010221EABE
:10376000035141F4801150EA410CCCD001F0004CDF
:10377000352A27DC30B481EA0C01B2F1200309DAE2
:10378000C2F12003044601FA03F5D0402843D1409A
:103790009C400CE0C3F12002450020FA03F418BF5E
:1037A00044F0010421FA03F091400C43002174F12C
:1037B000004550F1000051EB0C01244230BC7FF475
:1037C0007BAF70476146002076E7D0048901D004C2
:1037D00078018901C1F30A5340F21E42D31A0CDD6D
:1037E000CA0283F3070342EA505242F00042DA4031
:1037F00002EBE17282EAE17070476FEAE17203F274
:10380000E13008B182F00040704700002800180045
:103810007A017A0110F0004160B148BF4042B0FA2D
:1038200080F29040D21CC2F5846241EA025202EB5F
:10383000D0214005704700000C002700841A71EB6E
:10384000030604D26E40001BB141121973414FF4BC
:10385000001C1CEB410F34BF7CEB430683E00C0DD6
:10386000A4EB1356362E00F37C80012E45EAC323C9
:1038700041DC43EA525312BFD20292025B08240594
:1038800045EAC12141EA5051D2EBC020994125D4EB
:1038900007D1B0FA80F610FA06F162D00020203687
:1038A00008E0B1FA81F6B140C6F1200220FA02F236
:1038B0001143B0404FEAF474B4EB465434F00106BF
:1038C0004FEA74040AD8D6F50016760D04F00044C9
:1038D000F04061FA06F25040F1404840C00A40EA28
:1038E000415021F0004128BF5FEA500550F100002F
:1038F00044EBD12135E0DB0A45EAC121C90AB6F122
:1039000020050EDD42EA0242120CC5F1200603FA40
:1039100006F6EB4042EA06056D42984161F100016E
:103920000DE062FA06F5F240554063FA06FC82EAC1
:103930000C02F3405A406D42904161EB030111F4D7
:10394000801F05D1641E620502D06D0040414941CF
:1039500021F48011430875F1004350F1000041EB60
:10396000045170BC70471CEB410F15D223F000438B
:1039700052EA43060BD04FEA4C0CBCEB410F04D883
:103980000C0D661E342EB7DDEBE7801A994150EA24
:10399000410608BF0021E4E708BF1CEB430F28BF26
:1039A0006FF00001DDE7000070B491EA030F4FF003
:1039B00000457FF543AF6B40841A71EB030603D2D9
:1039C000001BB141121973414FF4001C1CEB410F55
:1039D00034BF7CEB430442E00C0DA4EB1356352EB0
:1039E0004FDC45EAC323DB0A45EAC121C912B6F11F
:1039F00020050DDD63FA05F6EB4086EA0305124269
:103A000018BF45F00105C01851F100010CD213E0B8
:103A100062FA06F5F2405540F3415A40B340F34094
:103A20005A408018594107D349085FEA30005FEADD
:103A3000350528BF45F0010501F58011420875F1F3
:103A4000004250F1000041EB04514E0016F5001FFA
:103A500070BC38BF70470020090D090570471CEB8A
:103A6000410F10D252EA43060BD0BCEB410F05D8F0
:103A70000C0DAB43661E342EB6DD02E0AB4380185E
:103A8000594170BC704770BC7047000000000000D6
:103A9000F0B540F2FF7581EA030C0CF0004C15EA1A
:103AA00011541DBF15EA1357AC42AF42E5E0BC41CB
:103AB000C1F31301C3F31303801A994143F4801334
:103AC00004D2641E0018494180185941C90241EAD4
:103AD0005051B1FBF3F603FB1611A2FB0675D7EBB1
:103AE000C020A94102D2761E80185941C90241EA7C
:103AF0005051B1FBF3FE03FB1E11A2FB0E75D7EB79
:103B0000C020A94103D2AEF1010E801859418902AB
:103B100041EA9051760546EA8E2EB1FBF3F603FB9F
:103B20001611A2FB0675D7EB8020A94102D2761EA2
:103B300080185941C90241EA50514EEA060EB1FBC4
:103B4000F3F603FB1611A2FB0675D7EBC020A941C3
:103B500002D2761E80185941C90241EA5051B1FB88
:103B6000F3F703FB1711A2FB0735D3EBC020A941E4
:103B700067F100070CBF004247F0010766F3D52745
:103B80004FEA1E31B80814F5806412DDBD0775F1E7
:103B9000004250EB0E5051EB045111F5801F5CBFF9
:103BA00041EA0C01F0BD4CF07F6141F0E0410020A2
:103BB000F0BDBD076D0840EA0E5041F48011D4F10C
:103BC0000104B4F120060ADAC4F120060200E04044
:103BD00001FA06F3E1401843B24015430EE0342CDD
:103BE00013DCC6F1200445EA40056D0820FA06F210
:103BF000154321FA06F0A1400D43002175F1004262
:103C000050F1000051EB0C01F0BD00205FEA0C0107
:103C1000F0BDCFB992185B41B3FA83F704BFB2FA93
:103C200082F6BF190B3FB7F120062FBF02FA06F349
:103C3000BB40C7F1200622FA06F638BF3343BA402C
:103C40001CB1E419641E33E77F4231F00041B1FA40
:103C500081F404BFB0FA80F6A4190B3CB4F120063D
:103C60002FBF00FA06F1A140C4F1200620FA06F6A3
:103C700038BF3143A0403C1B1AE7AC421ABF05EAEB
:103C80001357AF4212E050EA41061CBF52EA430606
:103C9000BFE750EA4107304661461CBF41EA055183
:103CA000F0BD52EA430C08BFC143F0BD00204FF401
:103CB000001616EB410F98BF16EB430F08BF16EB2B
:103CC000410F24BFC14305E016EB430F0CBF614613
:103CD0004CEA0551F0BD2E00400D40F21E4C40EA6A
:103CE000C120BCEB115C40F0004003D48CF3070111
:103CF000C84070476FEAE1707047704750B1B0FA42
:103D000080F18840C91CC1F58461090501EBD0210F
:103D1000400570470146704730B540F2FF7C1CEA11
:103D200011541DBF1CEA1355644565453FE06419F5
:103D300081EA030C6FF35F530CF0004C43F48013E3
:103D4000C90241F0004141EA505EC5021100A5FBE5
:103D5000020200284FF00000EEFB01204FF00001AE
:103D6000E3FB052118BF42F0010240180021494140
:103D7000E3FB0E01A4F580640D0302D292184041CA
:103D8000494154F1010470DD450872F1004250F1DF
:103D9000000051EB0451A1F5801102D441EA0C015D
:103DA00030BD40F2FF7E4CEA0E51002030BD0CEADF
:103DB0001355644518BF654581EA030C0CF0004CAF
:103DC00041D050EA410E1CBF52EA430E02E0614668
:103DD000002030BD24422C441BD15FEA050EF6D0F2
:103DE000090302BF01460020AEF1140EB1FA81F5BD
:103DF000AEEB050401FA05FE0C35C5F1200100FA11
:103E000005F5C8404EEA000E6FF35F5343F480138C
:103E10009CE733F00043B3FA83F504BFB2FA82FEA5
:103E200075440B3D641BB5F1200E2FBF02FA0EF353
:103E3000AB40C5F1200E22FA0EFE38BF43EA0E0356
:103E4000AA40641C7CE750EA410E14BF52EA430EBC
:103E50006FF000014FF4001515EB430F8EBF1946AC
:103E600015EB410F9DE7B4D830BDD4F10104B4F196
:103E700020050FDAC4F12005520828BF42F00102E4
:103E800010FA05FE01FA05F57244E2BFE04028434E
:103E9000E1400FE0352C9ADCC5F1200452EA4002E3
:103EA00020FA05F218BF42F0010231FA05F0A140F4
:103EB0000A43002172F1004250F1000051EB0C0165
:103EC00030BD70470048704710420020012000F0CC
:103ED00001B8704780B5AFF30080024A1100182086
:103EE000ABBEFBE7260002003E3E3D3D2048434975
:103EF0005F444953434F4E4E454354494F4E5F43F1
:103F00004F4D504C4554455F4556545F434F4445D3
:103F10000A00000020202020202D20436F6E6E65B7
:103F20006374696F6E2048616E646C653A2020206E
:103F30003078253032580A20202020202D2052654C
:103F400061736F6E3A202020203078253032580A75
:103F5000000000003D3D3E3E206163695F67617087
:103F60005F6765745F626F6E6465645F64657669E0
:103F7000636573203A20737563636573730A0D007C
:103F800020202020202D204E756D206F662061643A
:103F9000647265737365733A202020307825780A3F
:103FA0000000000020202020202D20616464726524
:103FB00073736520256420747970653A2020202071
:103FC000307825780A20202020202D20616464721A
:103FD000657373652025642076616C3A202020206B
:103FE00030782530327825303278253032782530D7
:103FF000327825303278253032780A0D0000000002
:104000003D3D3E3E206163695F6761705F6164644E
:104010005F646576696365735F746F5F6C69737401
:10402000203A206661696C203A20307825780A0DA4
:10403000000000003D3D3E3E206163695F676170A6
:104040005F6164645F646576696365735F746F5F05
:104050006C697374203A20737563636573730A0D1A
:10406000000000003E3E3D3D204843495F4C455F17
:10407000434F4E4E454354494F4E5F555044415473
:10408000455F434F4D504C4554455F53554245564F
:10409000545F434F44450A0020202020202D204318
:1040A0006F6E6E656374696F6E20496E74657276AB
:1040B000616C3A20202025642E25303264206D73F7
:1040C0000A20202020202D20436F6E6E65637469C6
:1040D0006F6E206C6174656E63793A202020202514
:1040E000640A20202020202D205375706572766987
:1040F00073696F6E2054696D656F75743A20202066
:104100002564206D730A00003E3E3D3D2048434932
:104110005F4C455F454E48414E4345445F434F4EDB
:104120004E454354494F4E5F434F4D504C455445C7
:104130005F5355424556545F434F4445202D20431D
:104140006F6E6E656374696F6E2068616E646C6516
:104150003A203078253034580A00000020202020F2
:10416000202D20436F6E6E656374696F6E206573DA
:104170007461626C69736865642077697468204053
:104180003A253032783A253032783A253032783A4A
:10419000253032783A253032783A253032780A00A4
:1041A0003E3E3D3D204843495F4C455F434F4E4EA8
:1041B000454354494F4E5F434F4D504C4554455F26
:1041C0005355424556545F434F4445202D20436F7D
:1041D0006E6E656374696F6E2068616E646C653ABB
:1041E000203078253034580A00000000202020209C
:1041F000202D20436F6E6E656374696F6E2065734A
:104200007461626C697368656420776974682040C2
:104210003A253032583A253032583A253032583A19
:10422000253032583A253032583A253032580A0073
:10423000203D3D3E20556E6B6E6F776E20484349A2
:10424000204C45204D657461206576656E74206351
:104250006F6465203A20253032580A0D00000000B6
:1042600020204661696C2020203A206163695F6CE0
:10427000326361705F636F6E6E656374696F6E5FEA
:10428000706172616D657465725F7570646174658B
:104290005F7265737020636F6D6D616E640A0000FC
:1042A0002020537563636573733A206163695F6CA3
:1042B000326361705F636F6E6E656374696F6E5FAA
:1042C000706172616D657465725F7570646174654B
:1042D0005F7265737020636F6D6D616E640A0000BC
:1042E0003E3E3D3D204143495F4741505F50524F64
:1042F000435F434F4D504C4554455F5653455654CC
:104300005F434F44450A00002D2D204741505F4731
:10431000454E4552414C5F444953434F56455259CF
:104320005F50524F4320636F6D706C657465640A13
:10433000000000003E3E3D3D204143495F47415063
:104340005F50414952494E475F434F4D504C455491
:10435000455F56534556545F434F44450A0000009D
:1043600020202020202D2050616972696E67204B2B
:104370004F200A20202020202D2053746174757353
:104380003A20307825780A20202020202D205265E0
:1043900061736F6E3A20307825780A003D3D3E3ECD
:1043A000206863695F646973636F6E6E6563742010
:1043B0003A206661696C203A20307825780A0D0031
:1043C0003E3E3D3D204143495F4741505F4E554D84
:1043D000455249435F434F4D50415249534F4E5F01
:1043E00056414C55455F56534556545F434F4445DF
:1043F0000A00000020202020202D20436F6E6E65D3
:104400006374696F6E2068616E646C65203A203059
:1044100078253034780A20202020202D206E756DDC
:10442000657269635F76616C7565203D20256C64FB
:104430000A20202020202D204865785F76616C7549
:1044400065203D20256C780A00000000203D3D3E9F
:1044500020556E6B6E6F776E204843492076656EEF
:10446000646F722073706563696669632065766541
:104470006E7420636F6465203A20253032580A0D2F
:10448000000000003E3E3D3D204843495F454E430D
:1044900052595054494F4E5F4348414E47455F453E
:1044A00056545F434F44450A00000000202020205E
:1044B000202D20436F6E6E656374696F6E204861B6
:1044C0006E646C653A2020203078253032580A20FE
:1044D000202020202D20537461747573203A2020F1
:1044E00020203078253032580A20202020202D200E
:1044F000456E61626C65203A20202020307825309E
:1045000032580A00203D3D3E20556E6B6E6F776E2F
:1045100020484349206576656E7420636F6465208A
:104520003A20253032580A0D000000003D3D3E3E45
:1045300020537461727420426C655F4863695F4701
:1045400061705F476174745F496E69742066756E4F
:104550006374696F6E0A000020204661696C202038
:10456000203A206163695F68616C5F777269746586
:104570005F636F6E6669675F6461746120636F6D0E
:104580006D616E64202D20434F4E4649475F444184
:1045900054415F505542414444525F4F4646534553
:1045A000542C20726573756C743A20307825303243
:1045B000580A00002020537563636573733A2061C5
:1045C00063695F68616C5F77726974655F636F6E62
:1045D0006669675F6461746120636F6D6D616E64AD
:1045E000202D20434F4E4649475F444154415F5080
:1045F0005542414444525F4F46465345540A0000D9
:1046000020205075626C696320426C7565746F6F11
:10461000746820416464726573733A20253032589F
:104620003A253032583A253032583A253032583A05
:10463000253032583A253032580A00002020466191
:10464000696C2020203A206163695F68616C5F7744
:10465000726974655F636F6E6669675F64617461D8
:1046600020636F6D6D616E64202D20434F4E46496F
:10467000475F444154415F49525F4F46465345545A
:104680002C20726573756C743A203078253032585E
:104690000A0000002020537563636573733A20613C
:1046A00063695F68616C5F77726974655F636F6E81
:1046B0006669675F6461746120636F6D6D616E64CC
:1046C000202D20434F4E4649475F444154415F49A6
:1046D000525F4F46465345540A0000002020466171
:1046E000696C2020203A206163695F68616C5F77A4
:1046F000726974655F636F6E6669675F6461746138
:1047000020636F6D6D616E64202D20434F4E4649CE
:10471000475F444154415F45525F4F4646534554BD
:104720002C20726573756C743A20307825303258BD
:104730000A0000002020537563636573733A20619B
:1047400063695F68616C5F77726974655F636F6EE0
:104750006669675F6461746120636F6D6D616E642B
:10476000202D20434F4E4649475F444154415F4509
:10477000525F4F46465345540A00000020204661D0
:10478000696C2020203A206163695F68616C5F7307
:1047900065745F74785F706F7765725F6C6576655E
:1047A0006C20636F6D6D616E642C20726573756C27
:1047B000743A203078253032580A00002020537592
:1047C00063636573733A206163695F68616C5F73EB
:1047D00065745F74785F706F7765725F6C6576651E
:1047E0006C20636F6D6D616E640A0000202046616D
:1047F000696C2020203A206163695F676174745F8F
:10480000696E697420636F6D6D616E642C207265D2
:1048100073756C743A203078253032580A000000E5
:104820002020537563636573733A206163695F6722
:104830006174745F696E697420636F6D6D616E641D
:104840000A00000020204661696C2020203A206187
:1048500063695F6761705F696E697420636F6D6D16
:10486000616E642C20726573756C743A2030782503
:104870003032580A000000002020537563636573CE
:10488000733A206163695F6761705F696E69742064
:10489000636F6D6D616E640A000000002020466148
:1048A000696C2020203A206163695F676174745FDE
:1048B0007570646174655F636861725F76616C7561
:1048C00065202D20446576696365204E616D652CF9
:1048D00020726573756C743A203078253032580A2E
:1048E000000000002020537563636573733A2061F4
:1048F00063695F676174745F7570646174655F6339
:104900006861725F76616C7565202D2044657669FB
:104910006365204E616D650A00000000202046613D
:10492000696C2020203A206163695F676174745F5D
:104930007570646174655F636861725F76616C75E0
:1049400065202D20417070656172616E63652C2059
:10495000726573756C743A203078253032580A00CD
:104960002020537563636573733A206163695F67E1
:104970006174745F7570646174655F636861725FB0
:1049800076616C7565202D20417070656172616E75
:1049900063650A0020204661696C2020203A206867
:1049A00063695F6C655F7365745F64656661756C90
:1049B000745F70687920636F6D6D616E642C207216
:1049C0006573756C743A203078253032580A0000CF
:1049D0002020537563636573733A206863695F6C65
:1049E000655F7365745F64656661756C745F70683C
:1049F0007920636F6D6D616E640A0000202046614E
:104A0000696C2020203A206163695F6761705F7381
:104A100065745F696F5F6361706162696C69747905
:104A200020636F6D6D616E642C20726573756C749C
:104A30003A203078253032580A0000002020537583
:104A400063636573733A206163695F6761705F7365
:104A500065745F696F5F6361706162696C697479C5
:104A600020636F6D6D616E640A0000002020466156
:104A7000696C2020203A206163695F6761705F7311
:104A800065745F61757468656E7469636174696F7C
:104A90006E5F726571756972656D656E7420636FA6
:104AA0006D6D616E642C20726573756C743A203084
:104AB00078253032580A00002020537563636573EF
:104AC000733A206163695F6761705F7365745F61EA
:104AD000757468656E7469636174696F6E5F726521
:104AE00071756972656D656E7420636F6D6D616E51
:104AF000640A000020204661696C2020203A206171
:104B000063695F6761705F636F6E66696775726521
:104B10005F77686974656C69737420636F6D6D612C
:104B20006E642C20726573756C743A203078253071
:104B300032580A002020537563636573733A20610D
:104B400063695F6761705F636F6E666967757265E1
:104B50005F77686974656C69737420636F6D6D61EC
:104B60006E640A003D3D3E3E20456E6420426C6509
:104B70005F4863695F4761705F476174745F496E46
:104B800069742066756E6374696F6E0A00000000B8
:104B90004E657720416476207265706F7274202DA7
:104BA0003E204576656E2054797065203A20307835
:104BB0002530327820202D20416464726573732083
:104BC00054797065203A2030782530327820202DB5
:104BD0002041646472657373203A20307825303246
:104BE000583A253032583A253032583A2530325822
:104BF0003A253032583A2530325820202D204C6545
:104C00006E677468204461746120203A2025640A2C
:104C10000D000000202050325020736572766572BE
:104C20002020202020202020202020202020202084
:104C30002020202020202020200A20202020202D7D
:104C4000204576656E2054797065202020203A201A
:104C5000307825303278202020202020202020206D
:104C60002020202020202020202020202020200A5A
:104C700020202020202D204164647265737320540D
:104C8000797065203A203078253032782020202035
:104C90002020202020202020202020202020202014
:104CA00020202020200A20202020202D2062642087
:104CB000616464722020202020203A203078253042
:104CC00032583A253032583A253032583A25303267
:104CD000583A253032583A253032582020202020AA
:104CE00020202020202020202020202020202020C4
:104CF000202020200A20202020202D204C656E67B7
:104D00007468204461746120203A2025640A000000
:104D1000416464726573732052504120203A203000
:104D200078253032583A253032583A253032583AC0
:104D3000253032583A253032583A253032580A0D4B
:104D4000000000002DE9F847DFF8DC8BB7B008F170
:104D5000340000F009FF0FF631320021202000F06E
:104D6000BBFF0FF6D1220021082000F0B5FFDFF8CD
:104D7000BC4B42F210702518FC220021284601F09D
:104D800021F84FF4FC722946002001F065FA00205A
:104D900001F0CDFA0020009000230022FF2101F055
:104DA000BBF810F1030F1CBF032001F035F94420BC
:104DB0000821208261824FF4A8601E21A082E17543
:104DC000FB2040216083A177F8202021A083E17798
:104DD00002206F21A075218304F1380041F2AC510B
:104DE00020602144A1604FF48B5041F27452E06086
:104DF0000021626021846162204601F0ADFE00283E
:104E000040F00482002109A8ADF82210ADF8281066
:104E10000160DFF8B49B09F2446200F0FEFC002060
:104E20000090062101A801F0A5FE04F1280500204C
:104E30002860A880062201A9284601F09FFE60BBD9
:104E4000DFF8D00B016811F1010F0CD04268297016
:104E5000090A6970120A4068EA70110A120CA870F7
:104E600029716A7119E06946002001F097FE90B936
:104E70000098017A00982970417A00986970817AC7
:104E80000098A970C17A0098E970017B0098297197
:104E9000417B697101E00FF2B0352A4606210020FE
:104EA00001F094FE030004D009F5CE6200F0BDFCD1
:104EB00013E009F2CC6200F0B0FC287809F5E36257
:104EC000049069780391A8780290E9780191287993
:104ED000022100906B7900F059FC28780BAE0FF29C
:104EE00070328DF82C0029784FF00F0A0FF26837D6
:104EF00071702878B0702978F1702878307129782D
:104F000071712878B0712978F17128783072297818
:104F100071722878B0722978F17228783073297804
:104F200071732878B07329780020F17300F018FCB1
:104F30004FFA8AF0335C3A4600F077FC00F090F9C3
:104F4000F6D5C0A6324600F068FC0BAA1021182046
:104F500001F03CFE28B1034609F2547200F065FCF2
:104F600003E009F2AC7200F0FBFB68780FAF0FF6BC
:104F700064328DF83C0068784FF00F0A78706978D9
:104F8000B9706878F870697839716878787169787B
:104F9000B9716878F8716978397268787872697867
:104FA000B9726878F8726978397368787873697853
:104FB000B973687802210FF62435F87300F02EFCDF
:104FC0004FFA8AF03B5C2A4600F02FFC00F048F9CB
:104FD000F6D5324600F021FC0FAA1021082001F07E
:104FE000F5FD28B1034609F2F47200F01EFC03E05F
:104FF00009F64C0200F0B4FB1921012001F0F6FD86
:1050000028B1034609F6940200F00FFC03E009F60C
:10501000D40200F0A5FB01F02DFE28B1034609F6ED
:10502000041200F002FC03E009F6381200F098FBCD
:105030000DF126000AA9019000910DF1220308222A
:105040000221042001F074FE28B1034609F65C1227
:1050500000F0EBFB03E009F5196200F081FB04F1BD
:1050600030000090BDF82810BDF82200082300226F
:1050700001F090FE28B1034609F6B41200F0D5FB0A
:1050800003E009F6FC1200F06BFB09A80090BDF8E4
:105090002610BDF822000223002201F07BFE28B179
:1050A000034609F6342200F0C0FB03E009F678223B
:1050B00000F056FB02220221002001F09BFE28B1E5
:1050C000034609F6AC2200F0B0FB03E009F6E82243
:1050D00000F046FB012088F8000001F091FE28B1A5
:1050E000034609F6143200F0A0FB03E009F654323F
:1050F00000F036FB012088F80100082188F8041030
:10510000102088F80500012188F80310DFF8540901
:1051100088F80210C8F80800002203901021082324
:1051200004920120019100930290002302220121A8
:1051300001F070FE28B1034609F6843200F075FBD9
:1051400003E009F53D6200F00BFB98F8020060B146
:1051500001F0ACFE28B1034609F60C4200F065FBF5
:1051600003E009F64C4200F0FBFA25A908A801F07B
:10517000B9FE00F050FB00F054FB002629E0C6EB1E
:10518000C60425A805196978334600F0DEFA022125
:10519000029001962A780020761C00F0D1FA297836
:1051A00013A820440170AA790DF15101F6B2827161
:1051B00068790855287914A90855E8780DF14F0148
:1051C0000855A8780DF14E01085568780DF14D018C
:1051D00008559DF820108E42D1DB08000ED0012228
:1051E00013A901F0ABFE28B1034609F58C7200F05B
:1051F0001CFB03E009F5A67200F0B2FA09F67C4246
:1052000000F00BFB01F006FF01F04CFF0FF2A16272
:1052100000214FF4005000F05FFD0FF67D020021E9
:105220004FF4004000F058FD002000900FF65D03A1
:1052300000224FF47A7108F13C0002F061FB38B0B3
:10524000BDE8F0870A0000006543211E0800000049
:10525000202049524B3A2000253032583A000000B5
:10526000AAF1010A4FFA8AF0002870472DE9F04FA1
:10527000ADB007467B78DFF8B056DFF84C97052BCA
:1052800008D0082B00F03C823E2B5DD0FF2B00F0B5
:10529000B38144E2B988E88A81420ED10021E982D3
:1052A00000232B764A4600F0B8FAB87909F12C02AF
:1052B00002210090BB8800F069FA00F0EEFA1BA909
:1052C00008A801F00FFE00F0A6FA00F0AAFA4FF0CD
:1052D000000A25E0CAEBCA041BA8051969785346E1
:1052E00000F033FACDF804A0022102902A780020C1
:1052F00000F026FA297809A820440170AA79827161
:10530000697941712A790271E978C170AA780DF141
:1053100025018270687808550AF101005FFA80FA69
:105320009DF820108A45D5DB080000F0FC810122A1
:1053300009A901F003FE030018BF09F58C7240F0C3
:10534000F08109F5A6727AE1FB780A2609F5D87A88
:105350004FF47A7840F2E244012B46D0022B79D008
:10536000032B04D00A2B1DD00C2B19D041E1B7F828
:10537000071009F5BE7200204C4300F0F1F9B4FBB0
:10538000F8F3B7F80B104E4308FB13480A220296B5
:10539000B8FBF2F2B7F80900009252460190BAE168
:1053A000012054E0B7F81B00B7F8053009F5087282
:1053B000444300F03AFA787A09F51D7200F0DBF9FF
:1053C000B7F81F1000F0B3F9B7F81D0000F0CBF9E3
:1053D000287E01280CBF032002202876B7F805108C
:1053E000E982F879002834D12DE0B7F80F00B7F83A
:1053F000053009F52E72444300F017FA787A09F562
:10540000417200F0B8F9B7F8131000F090F9B7F84E
:10541000110000F0A8F9287E01280CBF032002200B
:105420002876B7F80500E882B7F80510002001F0EB
:1054300057FE287E032803D10021042000F05AFCE7
:10544000F879002805D1B7F80500A884042000F0F9
:1054500065FC68E100200A90824678790028F8D13E
:105460007C7B002309F6A8420794F8790690397AE4
:105470000591787A0490B97A0391F87A0290397B91
:105480000191B8790221009000F080F91CB10FF26F
:10549000546200F0C2F900260FF25C6806E007F1E2
:1054A0000E00835D424600F0C0F9761CA642F6DB92
:1054B0000FF2E028424600F0B0F9DFF8AC05417881
:1054C000012907D108AAF91D002002F033FB08B911
:1054D00001200A90424600F0A0F9D0463AE007F1D8
:1054E0000E010B5C0FF2106200F09FF90BF1010B43
:1054F0005FFA8BF0A042F2DB14B1A7A200F08DF9A5
:10550000DFF864050178012908BF4FF0010A0A9805
:10551000D8B19DF820009DF821109DF82530049009
:105520009DF8220003919DF8231002909DF824001D
:10553000019109F628620090022100F027F90FF28C
:10554000D85200F06AF94FF0000AB04408F10100A7
:105550001FFA80F8A04545DA07EB0800C17B867B7F
:10556000FF29F2D1072EF0DB807C022802BF07EB77
:105570000800007D83281EBF07EB0800007C01287F
:10558000E3D1B87909F62C52A876F979E976387A18
:105590002877797A6977B87AA877F97AE977387BC2
:1055A0000121697685F82000787BE97E0790287FC5
:1055B0000691697F0590A87F0491E97F039095F893
:1055C000200002910190B979002000917B7902219D
:1055D00002F0D3FA1CB10FF2285200F01EF94FF07E
:1055E000000B85E7BAF1010F02D1012000F0D6F8D7
:1055F00099E009F5527294E0B7F80330181FF7D01C
:1056000040F2FD31401A3CD0801F1ED0801E5DD07C
:1056100040F2F931401A70D101220492F879102138
:10562000029103900191388A0090FB89BA897989A7
:10563000B7F8050002F0CEFA20B109F55E7202213A
:10564000002040E009F56E723CE009F57E7200F042
:1056500087F87879022804BFB879002863D1687E7A
:10566000012802BFDFF80014087801285BD109F592
:10567000846200F0D2F800214FF4005000F03AFBB1
:1056800051E009F24C4200F06BF8FB7923B90FF2BC
:105690000C4200F0C2F806E0387A09F58F62022168
:1056A000009000F073F877A200F0B7F8B7F80500A3
:1056B000132102F0E7FA18B1034609F2B44230E0D0
:1056C0000FF2F032022102F058FA2CE009F59B6249
:1056D00000F046F8D7F80700D7F80710019009F254
:1056E0000C520091B7F80530022100F04FF8B7F8DE
:1056F0000500012102F0CDFA15E009F2645210E034
:1057000009F29C5200F089F8B87909F2C45201906C
:10571000F9780091BB88022100F038F803E009F223
:105720001C6200F082F801202DB0BDE8F08FB4FBC0
:10573000F8F30A224E4308FB1348022102967047F1
:10574000009209F1BC0202F018BA0791A8780690FD
:10575000E97805912879049069790391A8797047CF
:10576000022102F00ABAB8FBF2F201900020009286
:10577000524602F002BA0490B97A0391F87A029084
:10578000397B0191787B02210090BB7B002002F0E5
:10579000F4B900000A0D00000A0A0D00F8B5624EC7
:1057A000B34F10B1012805D00FE04FF4C864214673
:1057B00004250EE00025022002F088FA03001FD025
:1057C00007F1780200F031F81FE010B10128F2D0A3
:1057D000F1BD0023022289B2A0B202F0A5FA0300B3
:1057E00003D03A4600F021F804E0357607F1400294
:1057F00000F013F806F13C00BDE8F24002F099B861
:10580000357607F1AC0200F008F806F13C00BDE87F
:10581000F24002F0E1B809F16C020221002002F02E
:10582000ACB99DF8203009F198020221002002F065
:10583000A4B9000038B5002000908C4D694605F1F0
:10584000340000F0BDF90098083001F0F2FB0400CC
:1058500003D0009802F09EFB04E0009905F13400AB
:1058600000F08EF905F1340000F081F920B91CB187
:105870000021082000F03EFA0021202000F03AFA32
:1058800031BD00000A00000080B502F019FC18B913
:10589000BDE8014002F022BC01BD012000F03EBA8B
:1058A0000F2002F020BC00B17DE070470000000036
:1058B00018B587B0A0A2FFF7B0FF4FF4FA720492B8
:1058C00010200222069005902821009200235020EB
:1058D0000191154CA27E039302904FF4487104F19C
:1058E0001B03084602F016FC624AB0B9012020767C
:1058F000FFF793FF042000F019FAA18C89B1002072
:1059000001F0EEFB0020A08408B000224FF40071EB
:105910005948BDE8104002F048BD034608B03C328B
:105920007AE008B010BD0000209A0020001000208E
:105930007CB5044600200090207891255918042851
:105940002AD14A4E4D4889B230630B3106F1280303
:105950006A468908022002F085FA18B17EA2FFF794
:105960005CFF1CE00098D0B10421017261780098BE
:105970004172A178009881720098A278E11C0B30E6
:10598000FDF7C0FD009906F1340000F003F9002195
:10599000082000F0AFF901E0022800D100252846D8
:1059A00076BD000000BF3649002000F051BD80B533
:1059B000002002F0B5FD012818BF00202A49087018
:1059C0000020BDE80240E9E6E83E00082748017EE5
:1059D000032900D1704710B502F02EFE0300294CB8
:1059E00003D02246FFF721FF03E004F13802FFF75E
:1059F00014FF01220021002001F0A0FA18B1034693
:105A000004F1640208E004F198020221BDE81040AC
:105A100002F0B3B8000AF90B02210020BDE81040E3
:105A200002F0ABB838B5104C6078174D401E80417D
:105A3000C00F607002F006FE30B103462A46FFF741
:105A4000F4FE05F1440206E0607801280CBF05F180
:105A5000C00205F5827202210020BDE8384002F044
:105A60008CB8000007B2010001450020209A0020F8
:105A7000C4B4020870C9020800000242A15800081C
:105A8000A758000860B60208509B020800214FF496
:105A9000004000F02FB9000001207FE620202020E8
:105AA000202D2050616972696E67205375636365AC
:105AB00073730A003D3D3E3E206863695F6469730D
:105AC000636F6E6E656374203A20737563636573EC
:105AD000730A0D00202045524B3A200025303258E1
