:020000040800F2
:1000000000100020C9CC020869AB02086BAB0208E3
:100010006DAB02086FAB020871AB02081107030851
:1000200000000000000000000000000073AB0208A8
:1000300075AB02080000000077AB020879AB02083C
:10004000150703081907030881AB02081D070308F9
:100050002107030825070308290703082D070308BC
:10006000310703088BAB020835070308390703087B
:100070003D0703084107030845070308490703082C
:100080004D07030855AC02085FAC0208510703088E
:1000900055070308590703085D07030861070308AC
:1000A00069AC020865070308690703086D070308C0
:1000B00071070308B3AB0208BDAB0208750703085C
:1000C000790703087D0703088107030885070308EC
:1000D000890703088D07030891070308950703089C
:1000E000990703089D070308A1070308A50703084C
:1000F000A9070308AD070308C7AB0208B107030847
:10010000B5070308B9070308BD070308C1070308BB
:10011000C5070308C9070308CD070308D10703086B
:10012000D5070308D9070308DD070308E10703081B
:10013000E5070308F1AB0208E9070308ED07030828
:10014000F1070308F5070308D1AB0208F907030814
:10015000FD07030801080308050803080908030848
:100160002DE9F14F84B001208DF800000020ADF89A
:1001700002000024002002900025002608208DF8AF
:10018000010000200190DFF8FC090078012803D16C
:1001900003208DF80000DAE10498002803D106203E
:1001A0008DF80000D3E1049810F00F0F03D0072062
:1001B0008DF80000CBE14FF6FF71DFF8CC291088F5
:1001C000884202D15FF4801007E01088002802D135
:1001D0005FF4801001E010888002400B022814D3E5
:1001E0001088884202D15FF4801007E01088002850
:1001F00002D15FF4801001E01088800210F10060ED
:10020000049911F58041884203D208208DF800003E
:100210009DE1DFF8780901F05BFC8DF801009DF8A5
:100220000100002807D09DF80100032803D00C200E
:100230008DF800008BE1EFF31080039072B60FF69B
:100240006910DFF84C198860049810F178400500B7
:100250005FF028095FF0000ADFF83879B8465246A7
:100260004946404601F058FC5FF000084046C0B2E5
:10027000002840F05E819DF80000012840F059817F
:10028000DFF81499BDF802104246D2B24020424332
:1002900019F802004118ADF8021002994246D2B294
:1002A0004020424309EB020042784346DBB2402043
:1002B000434319F8030000FB021102914146C9B201
:1002C0004020414319F80100022803D3BDF8020081
:1002D000032803D30D208DF8000027E14146C9B261
:1002E0004020414309EB01004078002802D00298E9
:1002F000032803D30E208DF8000017E100200190A1
:100300005FF0140A200080B20AFB00F007EB000146
:100310004246D2B24020424309EB020041605FF006
:10032000000B59464246D2B24020424319F802001F
:10033000C9B2814280F0FA8004983018210089B255
:100340000AFB01F178504146C9B2200080B20AFB95
:1003500000F0385801F0D4F8002813D14146C9B252
:100360004020414309EB010041787019400B01F036
:1003700019FA0028F2D0DFF824280121012001F029
:1003800037FC73E0200080B20AFB00F0385801F01F
:1003900022F9002813D14146C9B24020414309EB5C
:1003A000010041787019400B01F0FCF90028F2D0EF
:1003B000DFF8EC270121012001F01AFC56E041464C
:1003C000C9B24020414309EB0100C06800280DD1AB
:1003D000200080B20AFB00F007EB00014246D2B2D7
:1003E0004020424309EB0200C1603FE04146C9B2F0
:1003F0004020414309EB0100C0680190200080B219
:100400000AFB00F007EB0001019801F0BAF942463F
:10041000D2B240214A4309EB0201C8604146C9B249
:100420004020414309EB0100C068019988420DD189
:100430004146C9B24020414309EB0100417870199F
:10044000400B01F0AFF9002810D1F1E74146C9B2E5
:100450004020414309EB010041780198006810F108
:100460007840400B01F09EF90028EFD04146C9B218
:100470004020414309EB0100C06800280ED14146ED
:10048000C9B24020414309EB010041684246D2B263
:100490004020424309EB0200816038E04146C9B286
:1004A0004020414309EB0100C1684246D2B24020DE
:1004B000424309EB020042684346DBB2402043431B
:1004C00019F803000AFB00F01044143881420ED1E1
:1004D0004146C9B24020414309EB01004168424610
:1004E000D2B24020424309EB020081600FE0414656
:1004F000C9B24020414309EB0100C06810F114016A
:100500004246D2B24020424309EB0200816041469C
:10051000C9B24020414309EB010041784FF400503B
:1005200000FB0166641C1BF1010BFAE618F10108DF
:100530009CE69DF80000012806D10120DFF8441652
:10054000087000208DF80000039880F310889DF853
:10055000000005B0BDE8F08F2DE9F84F06000C0053
:10056000150001275FF00008B1465FFA89F95FEADC
:1005700099095FF0100A5FEA850B1BF10F0B5FEA28
:100580001B1B5FEA0B1BDFF8FC050078002802D17B
:1005900002200700ECE0DFF80C060078012802D109
:1005A00004200700E4E03000C0B2002802D00F2091
:1005B0000700DDE0002C02D111200700D8E014F084
:1005C0000300002802D012200700D1E0002D02D144
:1005D00013200700CCE0DFF8C0154A46D2B2402015
:1005E000424301EB0200006A00281DD04A46D2B205
:1005F0004020424301EB0200806A002814D04A46A2
:10060000D2B24020424301EB0200006B00280BD025
:100610004A46D2B24020424301EB0200806B0028E0
:1006200002D009200700A3E000221000C0B2042875
:1006300033D23800C0B201282FD14B46DBB2402064
:10064000434301EB03001300DBB200EBC300006A7D
:10065000002820D04B46DBB24020434301EB03008F
:100660001300DBB200EBC300406A80000F300009CA
:10067000000110EB0B0B4B46DBB24020434301EB78
:10068000030043784FF4005043431AEB0B008342BE
:1006900001D213200700521CC7E73800C0B201285E
:1006A00066D1EFF3108272B616F0030080464B4617
:1006B000DBB24020434301EB03004346DBB200EBD7
:1006C000C30004624B46DBB24020434301EB03000E
:1006D0004346DBB200EBC300456200231800C0B202
:1006E000042841D2CC465FFA8CFC402000FB0CFC75
:1006F00001EB0C009C465FFA8CFC00EBCC00006A1E
:1007000000282FD0CC465FFA8CFC402000FB0CFC6C
:1007100001EB0C0080689C465FFA8CFC00EB8C0CB3
:10072000CE465FFA8EFE402000FB0EFE01EB0E006F
:10073000806800681AEB0000CCF80400CC465FFA31
:100740008CFC402000FB0CFC01EB0C009C465FFA8B
:100750008CFC00EBCC00406A80000F3000090001E7
:1007600010EB0A0A5B1CB9E782F31088002007002F
:100770003B00DBB2DFF8842D0121012001F038FAC3
:100780003800C0B2BDE8F28F2DE9F84F84B0040004
:1007900001252600F6B2B60814F003008DF800001B
:1007A0000020019000275FF00008DFF8D8030078F0
:1007B000002802D1022005001AE1DFF8E89399F839
:1007C0000000012802D10420050011E12000C0B280
:1007D000002802D00F2005000AE1DFF8BCA3310099
:1007E000C9B2402041430AEB01009DF8001000EB24
:1007F000C100006A002802D110200500F8E0310095
:10080000C9B2402041430AEB0100C068002802D170
:100810000A200500ECE0EFF3108B72B6012089F896
:1008200000003100C9B23200D2B2402042430AEB8C
:100830000200C068006800F063FE002802D10B20AF
:100840000500D0E03100C9B2402041430AEB01006D
:10085000C068006800F0BFFE002802D10B20050030
:10086000C1E03100C9B2402041430AEB0100C06839
:1008700000688046200098F80410C0B2884211D168
:100880003100C9B2402041430AEB01009DF800103D
:1008900000EBC100406AB8F80510884202D1102070
:1008A000070070E0200098F80710C0B2884217D106
:1008B0003100C9B2402041430AEB01009DF800100D
:1008C00000EBC100406AB8F80810884208D1B8F8B7
:1008D000050080000F30000900011030070052E0D1
:1008E000200098F80A10C0B288421ED13100C9B267
:1008F000402041430AEB01009DF8001000EBC100CD
:10090000406AB8F80B1088420FD1B8F80500800093
:100910000F3000090001B8F8081089000F310909EB
:1009200009010818103007002DE0200098F80D107C
:10093000C0B2884225D13100C9B2402041430AEB00
:1009400001009DF8001000EBC100406AB8F80E10DD
:10095000884216D1B8F8050080000F300009000168
:10096000B8F8081089000F31090909010818B8F80A
:100970000B1089000F310909090108181030070010
:1009800001E0142005002800C0B201282BD131005D
:10099000C9B2402041430AEB0100C0680068381822
:1009A00001903100C9B2402041430AEB01009DF89B
:1009B000001000EBC100406A800003900198029093
:1009C0003100C9B2402041430AEB01009DF80010FC
:1009D00000EBC100D0F820A0039A0299504601F024
:1009E00051F900200500002089F800008BF31088E1
:1009F0002B00DBB2DFF8542D0121012001F0F8F8C3
:100A00002800C0B205B0BDE8F08F2DE9F34F81B0EA
:100A1000040001208DF801002500EDB2AD0814F0AE
:100A200003008DF8000057480078002801D102200B
:100A3000A4E02000C0B2002801D00F209EE0564E56
:100A40002900C9B24020414306EB01009DF8001087
:100A500000EBC100006A002801D110208EE0EFF306
:100A6000108772B65FF00108DFF8E49CD9F8001037
:100A700018FA05F00143C9F800102900C9B2402056
:100A8000414306EB010081789DF8000018FA00F060
:100A900001432A00D2B24020424306EB020081709B
:100AA0002900C9B24020414306EB01009DF8001027
:100AB00000EB81000299016187F31088DFF8E4A060
:100AC0009AF80000002858D1EFF3108B72B601207D
:100AD0008AF800008BF310882800C0B200F08EFE68
:100AE00002282CD1EFF3108172B600208AF80000A2
:100AF000D9F8000018FA05F830EA0808C9F80080AB
:100B000000222B00DBB24020434306EB030082703F
:100B100000221000C0B204280DD22B00DBB240200E
:100B2000434306EB03001300DBB200EB830000231A
:100B30000361521CEDE781F3108815201EE0EFF3EE
:100B4000108172B6DFF8A80C05709DF80020427085
:100B5000002282702A00D2B24020424306EB0200FB
:100B6000827812012B00DBB24020434306EB0300E6
:100B7000827081F31088002000E00020C0B2BDE840
:100B8000FE8F000030B10020A007F90BF812002002
:100B9000C4AE00201CAC002018120020E0F60208B1
:100BA000ECF9020831B100202DE9F04704000225DC
:100BB000DFF83C6CB078002809D0022800F02883C8
:100BC000C0F0CB80032800F0F78300F094BC200035
:100BD000C0B2002840F09680DFF8188C04223178EB
:100BE0004020414308EB010080680168DFF8E00C19
:100BF00000F0B0FD002839D1EFF3108772B6032062
:100C0000B07087F31088DFF8F02B31784020414333
:100C100008EB0100417833784020434308EB0300A0
:100C20008068006810F17840400B01F0EAF8050098
:100C30002800C0B2022840F08F800121307800F0F7
:100C4000C1FEEFF3108272B6DFF8041B0B685FF091
:100C5000010C30781CFA00FC33EA0C030B60002016
:100C6000DFF8581D087082F3108875E0EFF31087E5
:100C700072B60120B0700020DFF8441D087087F3C1
:100C80001088DFF8743B31784020414308EB0100C5
:100C9000717800EBC100426A31784020414308EB93
:100CA00001008068717800EB8100416896F800C00F
:100CB000402000FB0CFC08EB0C0096F801C000EB98
:100CC000CC00006A01F038F805002800C0B2022804
:100CD00042D10121307800F075FEEFF3108272B638
:100CE000DFF86C1A0B685FF0010C30781CFA00FC1E
:100CF00033EA0C030B600020DFF8C01C087082F39D
:100D0000108829E0DFF8F03A0422DFF8E81A377893
:100D10004020474301EB070080680168DFF8B00B13
:100D200001F00AF805002800C0B2022814D1012100
:100D3000307800F047FEEFF3108272B6DFF8101A39
:100D40000B68012730788740BB430B600020DFF839
:100D50006C1C087082F31088CDE32000C0B200281C
:100D600040F01782EFF3108772B67078032803D231
:100D70007078401C707001E000207070DFF8401C3B
:100D80000878401C0870DFF86C8A327840204243B3
:100D900008EB0200727800EBC200006A002802D162
:100DA00008780428E1D387F310880878042841D212
:100DB000DFF8443A31784020414308EB0100717874
:100DC00000EBC100426A31784020414308EB01004A
:100DD0008068717800EB8100416896F800C040207F
:100DE00000FB0CFC08EB0C0096F801C000EBCC00FB
:100DF000006A00F0A1FF05002800C0B2022840F000
:100E000006820121307800F0DDFDEFF3108272B62A
:100E1000DFF83C190B685FF0010C30781CFA00FC1D
:100E200033EA0C030B600020DFF8901B087082F39C
:100E30001088ECE131784020414308EB01008068E4
:100E4000006800F0C8FB002839D1EFF3108972B6B2
:100E50000320B07089F31088DFF89C293178402096
:100E6000414308EB0100417833784020434308EBCD
:100E700003008068006810F17840400B00F0C1FF6B
:100E800005002800C0B2022840F0C181012130785D
:100E900000F098FDEFF3108272B6DFF8B4180B681B
:100EA0005FF0010C30781CFA00FC33EA0C030B6095
:100EB0000020DFF8081B087082F31088A7E1EFF329
:100EC000108972B6DFF8F43B31784020414308EBDB
:100ED0000100C068186031784020414341443278B5
:100EE0004020424308EB02008068C860317840200F
:100EF000414308EB0100816832784020424308EB0F
:100F00000200426896F800C0402000FB0CFC18F874
:100F10000CC0142000FB0CFC02EB0C0014388142C6
:100F20000BD1317840204143414432784020424344
:100F300008EB0200406888600BE0317840204143B4
:100F4000414432784020424308EB0200806814306C
:100F5000886000210800C0B2042841D232784020C5
:100F6000424308EB0200C0680A00D2B200EB8200E4
:100F70004068002832D032784020424308EB02001B
:100F800080680A00D2B200EB820296F800C04020CE
:100F900000FB0CFC08EB0C008068D0F800C096F851
:100FA00000E0402000FB0EFE08EB0E00C0688E46FD
:100FB0005FFA8EFE00EB8E00D0F804E096F800A0F9
:100FC000402000FB0AFA08EB0A00C0680068BEEB8C
:100FD000000E5FEAAE0E0CEB8E005060491CB9E7C4
:100FE00089F310881868002834D0EFF3108A72B69D
:100FF0000220B0708AF31088DFF8FC273178402097
:10100000414308EB010041781868006810F178400E
:10101000400B00F0F6FE05002800C0B2022840F0A8
:10102000F6800121307800F0CDFCEFF3108272B62B
:10103000DFF81C170B685FF0010C30781CFA00FC1D
:1010400033EA0C030B600020DFF87019087082F39C
:101050001088DCE00021307800F0B4FC31784020CA
:10106000414308EB0100807800280FD1EFF3108294
:1010700072B6DFF8DC160B685FF0010C30781CFAF2
:1010800000FC33EA0C030B6082F31088DFF8C0A683
:10109000DAF80000002872D000210800C0B2202831
:1010A00027D2DAF80000C840C00720D5EFF310823D
:1010B00072B631700020B07000231800C0B204284E
:1010C00012D296F800C0402000FB0CFC08EB0C008C
:1010D00080785FF0010C1CFA03FC10EA0C0F01D0C1
:1010E000737001E05B1CE8E782F3108801E0491CA3
:1010F000D3E7307800F082FB05002800C0B2022858
:1011000015D10121307800F05DFCEFF3108172B64B
:10111000DAF800200123307883409A43CAF800208F
:101120000020DFF89828107081F310886FE0EFF34B
:10113000108172B6327840204243424433784020D6
:10114000434308EB0300837896F800C0402000FB7F
:101150000CFC08EB0C00807853EA00139370327893
:1011600040204243424433784020434308EB03008D
:10117000807810F0F000907081F3108847E0EFF372
:10118000108072B60021DFF83428117080F31088C7
:101190003DE0DFF86076DFF860363178402041438B
:1011A00007EB0100717800EBC100426A3178402002
:1011B000414307EB01008068717800EB81004168D2
:1011C00096F800C0402000FB0CFC07EB0C00777881
:1011D00000EBC700006A00F0AFFD05002800C0B2B8
:1011E000022814D10121307800F0ECFBEFF31082DB
:1011F00072B6DFF85C150B68012730788740BB4377
:101200000B600020DFF8B417087082F3108872E1D9
:101210002000C0B2002840F0A1800021307800F00A
:10122000D1FBDFF8D07531784020414307EB010056
:10123000807800280FD1EFF3108272B6DFF8101516
:101240000B685FF0010C30781CFA00FC33EA0C03E9
:101250000B6082F31088DFF8F884D8F800000028CB
:1012600072D000210800C0B2202827D2D8F8000090
:10127000C840C00720D5EFF3108272B6317000204D
:10128000B07000231800C0B2042812D296F800C033
:10129000402000FB0CFC07EB0C0080785FF0010C99
:1012A0001CFA03FC10EA0C0F01D0737001E05B1C08
:1012B000E8E782F3108801E0491CD3E7307800F0BA
:1012C0009DFA05002800C0B2022815D1012130780E
:1012D00000F078FBEFF3108172B6D8F800200123FC
:1012E000307883409A43C8F800200020DFF8CC26ED
:1012F000107081F310885EE0EFF3108172B63278DF
:10130000402042433A4433784020434307EB0300F4
:10131000837896F800C0402000FB0CFC07EB0C0023
:10132000807853EA001393703278402042433A4465
:1013300033784020434307EB0300807810F0F0003F
:10134000907081F3108836E0EFF3108072B60021C0
:10135000DFF86826117080F310882CE0DFF89824FD
:10136000DFF8901433784020434301EB03004178C9
:10137000DFF8480700680068B0F50050400B00F047
:1013800040FD05002800C0B2022814D101213078A8
:1013900000F018FBEFF3108272B6DFF8B4130B689D
:1013A000012730788740BB430B600020DFF80C1624
:1013B000087082F310889EE02000C0B200286AD135
:1013C000EFF3108772B60020B07000210800C0B2A1
:1013D00004280FD2DFF81C2433784020434302EB6B
:1013E0000300807801228A40104201D0717001E030
:1013F000491CEBE787F31088307800F0FFF905000F
:101400002800C0B2022818D10121307800F0DAFAA1
:10141000EFF3108272B6DFF838130B685FF0010C3F
:1014200030781CFA00FC33EA0C030B600020DFF874
:101430008C15087082F310885CE0EFF3108172B6AF
:10144000DFF8B023337840204343134496F800C0BC
:10145000402000FB0CFC02EB0C0090F802C096F858
:1014600000E0402000FB0EFE02EB0E0080785CEAFC
:10147000001C83F802C0337840204343134436787D
:101480004020464302EB0600807810F0F000987090
:1014900081F310882EE0DFF85C33DFF85C233178CD
:1014A0004020414303EB0100417837784020474317
:1014B00003EB070080680068B0F50050400B00F0B7
:1014C000A0FC05002800C0B2022813D10121307809
:1014D00000F078FAEFF3108272B69D490B6801278D
:1014E00030788740BB430B600020DFF8D0140870D1
:1014F00082F31088FFE7BDE8F08700002C020308A4
:1015000030B4020000231078FF2823D15078FF2840
:1015100020D14FF6FF70548884421BD11479FF2CE0
:1015200018D1B2F80540844214D1D479FF2C11D1DE
:10153000148984420ED1947AFF2C0BD1B2F80B405F
:10154000844207D1547BFF2C04D1D489844201D139
:1015500000203DE0DFF868450D00EDB24020454336
:1015600004EB050044784FF400504443A408B2F85B
:10157000055010894519B2F80B004519D089451955
:10158000AC4201D2002023E010790C00E4B2B0EBB1
:10159000840F01D000201BE0D0790C00E4B2A4003D
:1015A000641CA04201D0002012E0907A0C00E4B24A
:1015B000A400A41CA04201D0002009E0507B0C0034
:1015C000E4B2A400E41CA04201D0002000E001200D
:1015D000C0B230BC70472DE9F8430500002600205A
:1015E000009015F110075FF000085FF00009B9F1F5
:1015F000040F80F0A080B9F1000F07D0B9F1020FFD
:101600004DD028D3B9F1030F70D093E0B5F80500A1
:1016100000281DD06B46B5F805203900DFF8A4047A
:1016200000F094FD04002000C0B2002809D1B5F8F4
:10163000050080000F3000090001804619F1010902
:1016400008E02000C0B2022804D000F075FF01E0DD
:1016500019F10109CBE7288900281DD06B462A899A
:1016600018EB0701DFF85C0400F068FF04002000BD
:10167000C0B2002809D1288980000F30000900017C
:1016800010EB080819F1010908E02000C0B2022897
:1016900004D000F051FF01E019F10109A7E7B5F806
:1016A0000B0000281FD06B46B5F80B2018EB070184
:1016B000DFF8100400F042FF04002000C0B2002850
:1016C0000AD1B5F80B0080000F300009000110EBC3
:1016D000080819F1010908E02000C0B2022804D06E
:1016E00000F02AFF01E019F1010980E7E8890028EC
:1016F0001DD06B46EA8918EB0701DFF8C80300F03C
:101700001DFF04002000C0B2002809D1E889800034
:101710000F300009000110EB080819F1010908E079
:101720002000C0B2022804D000F006FF01E019F149
:1017300001095CE75BE700986988884201D10120D4
:1017400006003000C0B2BDE8F28300004403030885
:101750003CB0002070B403000120002494420DD25C
:101760000500EDB2012D09D153F8245051F8246041
:10177000B54201D000252800641CEFE7C0B270BC60
:10178000704770B4030018001C680D6862786E78AA
:10179000B24205D26E786278B61AFF2E00D00800E9
:1017A00070BC7047F8B584B004000D00002600201E
:1017B000009001A8C44991E88C0080E88C00029454
:1017C000039500F04FFF694601A800F0D3FF002801
:1017D00001D0002706E0009810F1010F01D000278A
:1017E00000E0012700F04FFF3800C0B205B0F0BDA7
:1017F00040B0002018120020C4AE00202DE9F84FA0
:10180000050002260020009000275FF010095FF01D
:10181000000ADFF8BC80C34652464946584600F0ED
:101820007BF9042F5FD2A6492A00D2B2402042435E
:1018300001EB020000EBC700006A002851D00098BD
:10184000002825D16B462A00D2B24020424301EB4A
:10185000020000EBC700426AAC465FFA8CFC4020F5
:1018600000FB0CFC01EB0C0000EBC700016A954883
:1018700000F06CFC04002000C0B2002801D17F1CE5
:10188000CFE72000C0B20228CBD000F055FEC8E759
:101890006B462A00D2B24020424301EB020000EB2B
:1018A000C700426AAC465FFA8CFC402000FB0CFC8F
:1018B00001EB0C0000EBC700016A824800F03EFE1D
:1018C00004002000C0B2002804D17F1CA9E700BF9B
:1018D00060AE00202000C0B20228A2D000F02CFE92
:1018E0009FE77F1C9DE7EFF3108972B674492A00C9
:1018F000D2B24020424301EB0200C06800280BD066
:101900002A00D2B24020424301EB0200C0680068C6
:101910004078401C88F801000098A8F80200EDB259
:10192000A80088F804002A00D2B24020424301EB0C
:101930000200406AA8F805002800C0B28000401CE0
:1019400088F807002A00D2B24020424301EB02008F
:10195000C06AA8F808002800C0B28000801C88F87F
:101960000A002A00D2B24020424301EB0200406B41
:10197000A8F80B002800C0B28000C01C88F80D0039
:101980002A00D2B24020424301EB0200C06BA8F80B
:101990000E0089F310884D4B0422AC465FFA8CFC94
:1019A000402000FB0CFC01EB0C0080680168404605
:1019B00000F0C2F9C0B2BDE8F28F000031B10020E2
:1019C00032B100202DE9F84304000D00002000266C
:1019D0000027DFF8EC802100C9B24020414308EB2A
:1019E00001008078002867D03800C0B2042863D294
:1019F0005FF001092100C9B24020414308EB01001A
:101A00008078391D19FA01F1084006003000C0B293
:101A100000284FD02100C9B24020414308EB01000B
:101A2000807819FA07F1084244D12100C9B2402058
:101A3000414308EB01003900C9B200EB81000069A5
:101A400000281ED02800C0B22200D2B240214A4352
:101A500008EB02013A00D2B201EB82010969884722
:101A6000EFF3108172B62200D2B24020424308EB5D
:101A700002003A00D2B200EB82000022026181F340
:101A80001088EFF3108172B62200D2B24020424398
:101A900008EB02008278381D19FA00F932EA0909C8
:101AA0002200D2B24020424308EB020080F80290AC
:101AB00081F310887F1C8CE7BDE8F18344B00020DF
:101AC00018120020F812002074050308C4AE00208C
:101AD00070B504000826002C01D1062517E0207AF5
:101AE000012801D1032512E000F0B6FE0500280010
:101AF000C0B200280BD107480168491C016000688A
:101B00002060A06960600120207200F0A7FE28001C
:101B1000C0B270BDE4AF002062F30F2262F31F4237
:101B2000401810F0030308D0C91A1FD3DB0748BFC1
:101B300000F8012D28BF20F8022D130030B4144600
:101B40001546103928BF20E93C00FAD8490728BFBC
:101B500020E90C0048BF40F8042D890028BF20F878
:101B6000022D48BF00F8012D30BC7047C91818BFBE
:101B700000F8012DCB0728BF00F8012D70478268BF
:101B8000521C8260426832B10268531C03601170BB
:101B90004168491E416070472DE9F043C1B004001F
:101BA0000D0016001F005FF0000831480068A042D9
:101BB0001BD3280000F050F82E490968084214D0C1
:101BC0003B003200414689B2D1F580716846C44677
:101BD0001FFA8CFC604400F043FE814619EB0808B4
:101BE000414689B2684600F076FE41B0BDE8F08318
:101BF00008B4F0B504000D00160005AF3B0032003C
:101C000029002000FFF7C8FFF0BC5DF808FB2DE9B4
:101C1000F04104000D0000F041FE0826164FDFF8E9
:101C20005C8032003900404600F02CF8200000F0C3
:101C300008F8280000F008F8002011490860BDE805
:101C4000F0810B490860704710B50400200000F0D7
:101C500003F80849086010BD010011F1010F02D11D
:101C60005FF0FF3002E00120491E8840704700000D
:101C70001CB0002018B00020E8050308D8AC0020F4
:101C800020B0002062B38B0708D0521E11F8013B30
:101C900000F8013B00F024808B07F6D1830740F069
:101CA000208000BF103A07D330B4B1E83810103AA2
:101CB000A0E83810F9D230BC530724BFB1E80810AF
:101CC000A0E8081044BF51F8043B40F8043BD20799
:101CD00024BF31F8022B20F8022B44BF0B7803708D
:101CE0007047121F17D35B0009D151F8043B20F84D
:101CF000023B1B0C121F20F8023BF6D20BE051F8FE
:101D0000043B00F8013B1B0A20F8023B1B0C121F8E
:101D100000F8013BF3D238BF121D521E24BF11F848
:101D2000013B00F8013BF8D87047FA0096006400C8
:101D30004B0032001E0014002DE9F04104000D009C
:101D400016001F00B5F1006F28D34FF6FF71DFF8C2
:101D5000C4231088884202D15FF4801007E0108805
:101D6000002802D15FF4801001E01088800210F199
:101D70000060A84212D31088884202D15FF480101C
:101D800007E01088002802D15FF4801001E010887D
:101D9000800210F100607119884207D2DFF87823C1
:101DA00001210120FFF724FF022028E014F00300A6
:101DB000002803D115F00F00002807D0DFF85C23BE
:101DC00001210120FFF714FF022018E0380000F085
:101DD0004AF980464046C0B200280ED1DFF84003E1
:101DE0000460456086600020DFF83813087000202A
:101DF000DFF83413087000F0EFFF4046C0B2BDE8D2
:101E0000F081F8B505000C0016004FF6FF71DFF801
:101E100004231088884202D15FF4801007E0108804
:101E2000002802D15FF4801001E010888002400B8E
:101E3000A84211D31088884202D15FF4801007E0D5
:101E40001088002802D15FF4801001E01088800221
:101E5000400B6119884206D2B44A01210120FFF7E4
:101E6000C7FE02201DE0002C06D1B04A012101204E
:101E7000FFF7BEFE022014E0300000F0F4F8070087
:101E80003800C0B200280AD1A548C560046101200D
:101E9000A44908700020A449087000F09DFF380094
:101EA000C0B2F2BD2DE9F8430024002500200090C7
:101EB0009D490878002802D0012856D09CE0994816
:101EC000007800282AD140F24C40994A1060012045
:101ED000087000F0C7FB924EB068012816DB28009E
:101EE000C0B2002812D13168706800F0D1FF05003F
:101EF0002800C0B20028EED17068103070603068E1
:101F000010303060B068001FB060E4E700F0BBFB49
:101F1000B068012828DA0120040025E041F204001D
:101F2000834A10600120087000F09CFB7C4E3069F1
:101F3000002812D02800C0B200280ED1F06800F0AE
:101F4000C4FF05002800C0B20028EFD13069401E50
:101F50003061F068401CF060E8E700F094FB306905
:101F6000002801D10120040046E0724E307800289C
:101F700006D10FF291116E48006800F0CBFF3AE0F5
:101F80006848007800281DD100F06CFB644FB868E9
:101F900001280FDB3968786800F07AFF002809D142
:101FA000786810307860386810303860B868001F82
:101FB000B860EBE7B868012801DA0120040000F0FE
:101FC00062FB14E000F04EFB554FF86800F07DFF17
:101FD000002805D13869401E3861F868401CF86057
:101FE0003869002801D10120040000F04CFB00F00A
:101FF000FAFF00203070FFE72000C0B200282AD08E
:10200000EFF3108672B64C4F00203870DFF82C8149
:10201000002088F8000086F31088494908680028E5
:1020200002D0002009688847DFF81891484601F07F
:1020300026F8002815D13878002812D198F8000029
:1020400000280ED16946484601F04BF8012000995E
:1020500089688847E8E70FF2AD013548006800F06D
:1020600059FFBDE8F1832DE9F04104005FF000085D
:102070000225EFF3108672B6334F3878002804D16A
:10208000304800F0F9FF012038702B49087800280B
:102090000BD12A4A1078002805D1012008700120B0
:1020A0001070012702E0002700E0002786F3108867
:1020B0003800C0B200280AD1002C06D0A068002841
:1020C00003D021001F4800F0F4FF012016E0002C8F
:1020D0000BD0A068002808D0EFF3108072B6A1687A
:1020E000174A116080F3108807E0EFF3108072B692
:1020F0000021134A116080F310880020C0B2BDE8AF
:10210000F081000080B501200A49087000F064FEEB
:1021100001BD0000A007F90BECF2020804ED020873
:102120000CAE002027B1002028B100200C000308CD
:10213000F0AF002025B1002023B1002024B1002001
:10214000ECAF002014AF002026B100202DE9F047AD
:1021500004000D0017001E005FF008085FF0000982
:10216000002C03D0002D01D0002E02D15FF0060A12
:1021700031E0207A002802D15FF0040A2BE01848F1
:1021800000682168884202D32068002802D15FF0ED
:10219000050A20E000F060FB82465046C0B20028ED
:1021A00019D1104800682168884203D0200000F04F
:1021B000B5FF81464846C0B2002808D13A00290040
:1021C000094801F086F830603068606001E007205F
:1021D000824600F043FB5046C0B2BDE8F08700BF26
:1021E000E4AF0020E0AF0020C0130020DFF8181398
:1021F000C243C2F300220B6862F308230B607047EE
:1022000080B501F00DF900F0AFFC00F014F800F01B
:102210006EF800F058F900F081F800F0ADF800F029
:10222000C5F800F0B4F800F095F8002000F0A0FC2C
:1022300000F0B0FDFCE710B598B04021002208ACDA
:102240002000FFF769FC202100226C462000FFF7E8
:1022500063FC022001F03DF9002001F0FDF80028A8
:1022600001D000F069F901F06FF9A8480121026876
:1022700061F3C4020260072008905FF48030099087
:102280005FF480100A9081200B904FF480700C90C6
:1022900010200D900020109008A801F085F900286A
:1022A00001D000F049F93F20009002200190002069
:1022B0000290002003904020049000200590002010
:1022C0000690002007900121684601F08AFC002852
:1022D00001D000F031F9022001F0FBFE0E2001F0E8
:1022E00041FF002801D000F027F918B010BD10B54B
:1022F00092B0482100226C462000FFF70DFC4FF4FD
:10230000004000905FF480201190684601F08EFF3D
:10231000002801D000F010F912B010BD80B57C4843
:10232000016851F001010160006810F001000090A7
:102330000098002206211D2001F08EFE1D2001F0D4
:102340009FFE002205211E2001F086FE1E2001F0C6
:1023500097FE01BD80B50020FFF748FF002002F086
:10236000EDF8002801D000F0E7F802F0F7F80028B7
:1023700001D000F0E1F801BD80B566486649016012
:1023800002F0F6F8002801D000F0D6F801BD80B5C3
:102390006248634901602021416002F00FF9002882
:1023A00001D000F0C9F802F0B1F901BD30B593B029
:1023B0001C2100226C462000FFF7AEFB30210022DA
:1023C00007AC2000FFF7A8FB564C574820601F20A1
:1023D000A06000202061002060610020A0615FF00B
:1023E0008040E061002020624FF48075656220002B
:1023F00002F0C6FA002801D000F09EF800200090FC
:1024000000200390002004900020059069462000E1
:1024100002F00FFD002801D000F08EF8200002F03D
:10242000E8FC002801D000F087F800200E90002082
:10243000089000200C905FF07C500D9012950122C6
:1024400007A9200002F008FB002801D000F074F872
:1024500013B030BD10B5354C354820605FF4E13025
:1024600060600020A0600020E060002020610C205F
:1024700060610020A0614FF40040E0610020206214
:10248000002060620020A062200002F0F9FC002819
:1024900001D000F051F80021200004F0D5F8002808
:1024A00001D000F049F80021200004F0F8F80028DD
:1024B00001D000F041F8200004F09EF8002801D07F
:1024C00000F03AF810BD80B51A48016851F00201D9
:1024D0000160016811F0020100910099016851F05A
:1024E00001010160016811F001010091009901688A
:1024F00051F004010160006810F0040000900098A1
:1025000004F03AF901BD000004080246F00C02464E
:10251000880C0246B8AE00200060024020AE0020C9
:1025200000080C426CAB00200078004690A200200E
:10253000003801408C0C024672B6FEE72DE9F843E4
:1025400004000D0017001E005FF00808002C03D0E7
:10255000002D01D0002E02D15FF006093AE0207A6A
:10256000002802D15FF0040934E01C4800682168AB
:10257000884202D32068002802D15FF0050929E0D3
:1025800000F06AF981464846C0B2002822D11448BA
:1025900000682168884208D13A002900114800F0FB
:1025A00066FE30603068606012E0200000F0B6FD2A
:1025B00000280BD10B486168026811613A002900BC
:1025C00000F087FE30603068606001E007208146DF
:1025D00000F044F94846C0B2BDE8F283E4AF002001
:1025E000E0AF0020C01300202DE9F84304000D00E7
:1025F0001600DFF8688198F80000012801D1022058
:102600002EE0012088F800000020C8F804004FF4F4
:102610007A7000F045F881464846C0B200281AD1C9
:10262000C8F808404E48070024F00040012804D1B3
:102630003100280000F05CF803E03100280000F0D1
:1026400070F84FF47A7000F02BF88146396824F066
:10265000004081433960002088F800004846C0B23D
:10266000BDE8F28300203E490A68002A09D53E4AA7
:102670003E4B13603E4B13600968002901D50121D0
:102680000800C0B27047012035490A6852F0004284
:102690000A600968002901D500210800C0B270470E
:1026A00070B5040004F06EF8050065192D4E306811
:1026B00010F4403F08D014F1010FF8D004F062F894
:1026C000A842F4D3032012E0316842F2FA0001403C
:1026D000002906D0214842680A4342603160012047
:1026E00005E03068C00701D501203060002070BDD2
:1026F000F0B4042204000D00194E336853F00103B6
:102700003360EFF3108372B62F682760241D2D1DF0
:10271000521E1700FFB2002FF6D183F31088F0BCD1
:102720007047F0B4202204000D000D4E336843F4CE
:10273000804353F001033360EFF3108372B62F68C8
:102740002760241D2D1D521E1700FFB2002FF6D149
:1027500083F31088F0BC704700000000DCAD00205F
:102760002820024020200240082002402301674523
:10277000AB89EFCD2DE9F84304000D00DFF8CC80E4
:1027800098F80000012801D1022048E0012088F8D3
:1027900000000020C8F804004FF47A70FFF780FFB3
:1027A00081464846C0B2002834D12068C8F80800E5
:1027B000DFF89C000700206820F00040042807D1C3
:1027C00000F02FF84FF47A70FFF76AFF814619E0A6
:1027D0005FF0FF302860606806006168A0684118FB
:1027E0008E420FD2300000F024F84FF47A70FFF7D9
:1027F00057FF81464846C0B2002801D02E6001E054
:10280000761CEAE73868216821F0004151F47E71B6
:1028100088433860002088F800004846C0B2BDE810
:10282000F2830B48016841F4803151F004010160EA
:102830007047074A136807490B4053EAC00343F443
:10284000803353F00203136070470000DCAD0020BA
:102850002820024005FCFEFF002070470020704742
:1028600008B584B00023039300290EBF01930190A3
:10287000491E0291009301A904AB0748784418301F
:1028800003F086FF019909B100220A70002858BFA1
:10289000039805B000BD00BFE7F2FFFF80B5182226
:1028A0000021DFF8AC0204F00AFF4FF4805200214F
:1028B000DFF8A00204F003FF0FF20D10DFF898120A
:1028C0000968884702BD10B504002000DFF88812AF
:1028D0008968884710BD7CB504000D0000F01CF924
:1028E0006946280080B200F0C0F810F1010F18D03E
:1028F00000200600280080B286420DD2A05D9549D6
:10290000BDF800208854BDF80000401C0005000DF3
:10291000ADF80000761CEDE700F008F900F007F8CC
:1029200003E000F003F97FF0020040B276BDF8B595
:1029300000240025EFF3108672B600F001F900289C
:102940003CD100F0E9F8824F388A798A884230D049
:10295000B87801280ED13988388A091AB98202203C
:10296000B87000203880B88A002803D10020B870E1
:1029700000203882B87800280CD1388A798A8842B9
:1029800004D2798A388A091AB98203E0388AD0F5E4
:102990008050B8826F48398A0844050086F3108851
:1029A00000F020FAB98A28006B4AD26890470400E8
:1029B00006E000F0BBF886F3108801E086F310888B
:1029C000200040B2F2BD000070B504000025EFF316
:1029D000108672B65E498878022804D1002088707B
:1029E0000020088205E00A8A888A82181205120DE2
:1029F0000A82088A4A8A904230D0C88A01282DD19A
:102A0000887801280ED10A88088A121A8A82022040
:102A1000887000200880888A002803D100208870F0
:102A200000200882887800280CD1088A4A8A9042BF
:102A300004D24A8A088A121A8A8203E0088AD0F5E8
:102A40008050888243480A8A1044050086F3108823
:102A5000898A2800404AD268904705E086F31088AA
:102A600000F0C1F900F062F870BDF0B403005FF04F
:102A7000FF30EFF3108472B6354D6A8A2E8AB24267
:102A800016D16E8AD6F580561A00370092B2BFB2C0
:102A9000BA422BD31A002F8A92B2BA4226D201220E
:102AA000AA706A8A2A802A8A160000226A821DE099
:102AB0002A8A6E8AB24216D26E8AD6F580561A00DB
:102AC000370092B2BFB2BA4210D31A002F8A92B224
:102AD000BA420BD20122AA706A8A2A802A8A160078
:102AE00000226A8202E02A8A6E8A961B1A00370048
:102AF00092B2BFB2BA420AD26A8A0A806F8A1A00B8
:102B000092B2D7193F053F0D6F820022100084F367
:102B1000108800B2F0BC7047EFF3108072B60C4919
:102B2000CA8A521CCA8280F310887047EFF3108063
:102B300072B60749CA8A521ECA8280F3108870474B
:102B40000348C08A002801D1002000E0012070471E
:102B5000C4AD0020644B0020FC040308AC480168AD
:102B600051F400010160704780B500F056F801BDD6
:102B700010B50400002003F0FDFD00F060F800F047
:102B800070F804F0ADFDA34804F0DEFDA24A002178
:102B9000402005F071F9A14908884FF6FF72904274
:102BA00002D15FF4801007E00888002802D15FF4AA
:102BB000801001E008888002400B4FF400529849D1
:102BC00002FB0010FDF7CCFA964A0021802005F0A8
:102BD00053F900F067F800F073F8934A00212020C1
:102BE00005F04AF905F0A6F900F03FF801210120AF
:102BF00000F032F90021022000F02EF9002100201F
:102C000000F02AF905F073FA0121022000F024F9FE
:102C1000002003F0B0FD002010BD80B50020009022
:102C20006946002006F0A6FE002803D00C2001F023
:102C30005AFC03E00098807B01F055FC01BD80B593
:102C4000FFF78CFF06F0B6FE794800F083FC794A66
:102C5000D2E90001FEF7DBFF07F042F807F0BAF80F
:102C600001BD80B507F03FFA01BD80B501F00BFE54
:102C7000714A0021012005F0FFF801BD38B50400BC
:102C80000D00A900200007F0CDFC31BD10B50400F7
:102C9000A00007F035FC10BD10B50400200007F0BF
:102CA0009EFC10BD80B5002007F036FD012007F026
:102CB00033FD022007F030FD012007F07FFD01BD4C
:102CC00038B55A4C00202070012084F820000220E2
:102CD00084F840000121002007F096FD0121012029
:102CE00007F092FD0121022007F08EFD534A0021DA
:102CF0004FF4007005F0C0F8514A00214FF4806095
:102D000005F0BAF84F4A00214FF4006005F0B4F81E
:102D100000252800C0B2032811D22800C0B240010B
:102D2000204400900FF21D03002200212800C0B2B1
:102D300040012044001D06F047FE6D1CE9E731BD4F
:102D40000000000038B504002500287807F009FECF
:102D500028772B785B1C3C4A02210020FEF748FFB5
:102D60002878002803D002280DD006D311E00021D6
:102D70004FF4007005F090F80BE000214FF48060F4
:102D800005F08AF805E000214FF4006005F084F8B2
:102D9000FFE731BD80B55FF0FF3004F0BDFF01BD3E
:102DA00070477047704780B50021202005F074F807
:102DB00001BD80B50021012005F06EF801BD234959
:102DC00001602349416023498160704780B500213B
:102DD000402005F061F801BD80B50021802005F09C
:102DE0005BF801BD7047704710B504000F48002123
:102DF0002200D2B25201024411774FF4FA7122003C
:102E0000D2B252011044001D06F052FE10BD000067
:102E1000F40C0246F81400207F7C0008A007F90B90
:102E200000C0FF07A51E0008C1800008E4A500201F
:102E300040000030601500201D490008C1970008BF
:102E400011980008699900087C0403087D2C00088B
:102E50008D2C0008992C000830B4EFF3108272B664
:102E60000B00DBB2002B08D0012B0DD1284B1C68C6
:102E7000012585402C431C6006E0254B1C6801257C
:102E80008540AC431C60FFE782F3108830BC70477C
:102E900070B504000D0001261D480168890705D59D
:102EA0000168490702D53000C0B20DE00168C907CA
:102EB000FCD42A0021000120FFF796FB002801D155
:102EC000002006003000C0B270BD38B584B00400E8
:102ED00001250F480168890705D50168490702D512
:102EE0002800C0B211E00168C907FCD4022001909B
:102EF000029401200390694601A8FFF73BFC0028DB
:102F000001D1002005002800C0B205B030BD00008E
:102F1000E8AF00202DE9F84390B004000D00002632
:102F20002800002801D101205AE0EFF3108772B683
:102F3000DFF8248198F80000012802D10120060062
:102F400002E0012088F8000087F310883000C0B24A
:102F5000002801D0012043E0404805600020002106
:102F6000CDE9020100200021CDE90401002000216B
:102F7000CDE9060108940020099000200A90002065
:102F80008DF82C0005208DF82D0000200C900FF2FC
:102F9000D9000D9000200E9000200F90002000908E
:102FA0000FF2950300224FF47A70B4FBF0F12C4835
:102FB00006F00AFDDFF8AC9002A807F017FDC9F88B
:102FC0000000D9F80000002809D1EFF3108172B693
:102FD000002088F8000081F31088012000E0002024
:102FE00011B0BDE8F08310B51D4806F07BFD1D480B
:102FF000006807F05FFD002801D1002400E00224F2
:1030000001210120FFF728FFEFF3108172B60020A5
:10301000114A107081F310882000C0B210BD80B535
:1030200000210120FFF718FF0D4806F0F3FC0B48C4
:103030000068804701BD000010B504000121012097
:10304000FFF70AFFEFF3108072B60021024A1170F9
:1030500080F3108810BD00002EB1002030B0002099
:10306000ACAD002034B0002070B504000D00160097
:10307000FFF7D5FF002070BD006040607047010081
:10308000EFF3108272B60868884201D1012000E097
:10309000002082F31088C0B27047EFF3108272B63E
:1030A00003680B60486001600B68596082F3108808
:1030B0007047EFF3108272B6086043684B6041605E
:1030C0004B68196082F310887047EFF3108172B675
:1030D00042680368136002684368536081F3108894
:1030E000704770B504000D00EFF3108672B62068CB
:1030F00028602068FFF7E9FF86F3108870BDEFF3C2
:10310000108272B603680B6082F3108870474AF62B
:10311000D410C2F2000090F8380070472DE9F8434F
:10312000040000251B4E707F002803D0300000F003
:103130007DF805002800C0B2002827D16069F06042
:10314000607B7071207B30712069B060A069306154
:10315000E0697061206AB061606A3062300000F03E
:103160001DF805002800C0B2002803D120680A49D4
:1031700008600BE018275FF0000816F104094246CA
:1031800039004846FEF7C8FC002030622800C0B273
:10319000BDE8F283C0130020E0AF002010B50400AA
:1031A000002C01D101203DE0607F002804D10020E7
:1031B0002077200007F0F6FC0220607720790028B5
:1031C00009D11948216848612068806830F01800EA
:1031D0002168886008E0E268A168200007F062FECC
:1031E000002801D001201DE06079002804D15FF0A3
:1031F000FF302168086102E02069216808612068C9
:10320000816831F060016069014320688160206855
:10321000816831F08001A06901432068816001204C
:103220006077002010BD0000B71DC10410B5040078
:10323000002C01D1012019E0607F022801D1022079
:1032400014E0022060772068806850F00100216857
:10325000886020684068002021684860200007F0EE
:10326000B2FC0020607700202077002010BD2DE9FF
:10327000F04104000D0016005FF0000802206077A6
:10328000206A012812D01FD3032801D015D31BE0D8
:1032900000200700B74205D255F8270021680860D2
:1032A0007F1CF7E72068006880460DE032002900A7
:1032B000200000F046F8804606E032002900200099
:1032C00000F08BF88046FFE7012060774046BDE8BC
:1032D000F0812DE9F04104000D0016005FF00008B8
:1032E000022060772068806850F0010021688860C3
:1032F000206A012812D01FD3032801D015D31BE068
:1033000000200700B74205D255F827002168086061
:103310007F1CF7E72068006880460DE03200290036
:10332000200000F00EF8804606E032002900200060
:1033300000F053F88046FFE7012060774046BDE883
:10334000F081F0B40026B6EB920F14D211F82630BB
:1033500001EB86077F783F0457EA036701EB86039A
:103360009B7857EA032701EB8603DB781F4303684A
:103370001F60761CE7E712F0030F2AD012F0030358
:10338000012B03D111F8263007683B7012F00303BC
:10339000022B0AD111F8263001EB86077F7857EA15
:1033A00003273C0003681D002C8012F00303032B4D
:1033B0000FD111F8263001EB86077F7857EA0327F3
:1033C0003C0003681D002C8001EB86039B78076896
:1033D0003B7000680068F0BC704770B40024B4EB28
:1033E000520F0BD231F82450660001EB4606768866
:1033F00056EA054605682E60641CF0E7D50704D53B
:1034000005682B0031F824501D800068006870BCEE
:1034100070474AF6D410C2F2000090F839007047A5
:1034200080B50C48016851F480710160032000F000
:103430000DFE07F081FD042000F04BFE0E2000F091
:1034400091FE002801D0012002E007F05FFB002080
:1034500002BD000000200240F0B40300DFF8D400F9
:10346000046814F480349C4201D100202FE0DFF87E
:10347000C8100A6832F480321A430A603225DFF835
:10348000BC6032686A43DFF8B870B2FBF7F2521CD6
:103490000F683F0403D4002A01D0521EF8E7002A27
:1034A00001D1032013E0316805FB01F5DFF890102E
:1034B000B5FBF1F1491C0268120403D4002901D0C4
:1034C000491EF8E7002901D1032000E00020F0BCEC
:1034D00070470200DFF86400016832204143DFF8E2
:1034E0006000B1FBF0F1491C002A0ED1DFF8540056
:1034F000036833F002030360DFF8380000688007D8
:1035000012D5002910D0491EF6E7DFF8380003680D
:1035100053F002030360DFF81C000068800703D447
:10352000002901D0491EF6E7002901D1032000E05F
:10353000002070473C0802460C080246B8150020DF
:1035400040420F00080802461348016851F001018B
:103550000160704710B4114A136800F0FF018B43FB
:1035600053EA102313600E4A1368032400F0FF018E
:1035700091FAA1F1B1FA81F1C9B249008C40A3439B
:1035800053EA10431360074A136800F0FF010B432E
:10359000136010BC70470000280802461808024655
:1035A0001C080246140802462DE9F84F84B00400B6
:1035B000002C01D1012011E3DFF89808006810F019
:1035C0000C000290DFF89C88D8F8007017F0030711
:1035D0002078C00764D50298082804D002980C28E7
:1035E00029D1032F27D16068002801D10120F5E2FD
:1035F0000298082854D1DFF854180A6832F4881267
:10360000A068024352F480320A60DFF86C0801229D
:103610000968090D11F001018A40B0FBF2F0DFF8F2
:1036200050180860DFF84C08006800F09BFD002887
:1036300036D00120D2E26068002819D0DFF80C985B
:10364000D9F8001031F4881160680143A068014383
:10365000C9F8001003F096F80500D9F800008003BF
:103660001ED403F08FF8401B6528F6D30320B5E283
:10367000DFF8D897D9F8001031F488116068014359
:10368000C9F8001003F07EF80500D9F800008003A7
:1036900006D503F077F8401B6528F6D303209DE29A
:1036A000207880074FD50298002804D002980C2873
:1036B00010D1022F0ED12069002801D101208DE206
:1036C000DFF88C07016831F4F811626951EA0241B0
:1036D000016038E0206900281FD0DFF87097D9F822
:1036E000000050F48070C9F8000003F04BF80500AA
:1036F000D9F80000400506D403F044F8401B032825
:10370000F6D303206AE2DFF84807016831F4F811C4
:10371000626951EA0241016015E0DFF83097D9F89B
:10372000000030F48070C9F8000003F02BF80500A9
:10373000D9F80000400506D503F024F8401B032803
:10374000F6D303204AE22078000740F1A880002049
:103750008DF80000DFF8AC07006840070DD4DFF8F3
:10376000A407016851F004010160006810F0040032
:103770000390039801208DF80000DFF88C97D9F8AA
:103780000000C00713D4D9F8000050F00100C9F8B8
:10379000000002F0F7FF0500D9F80000C00706D4CA
:1037A00002F0F0FF401B0328F6D3032016E2DFF8F7
:1037B0006497D9F800A05FF0806050F000500600D8
:1037C000A06900284DD0A06940011ED5E0691AF01B
:1037D0008051884214D05FEA0A1011D53AF0806A0D
:1037E000C9F800A002F0CEFF0500D9F800000001E2
:1037F00006D502F0C7FF401B1528F6D30320EDE1E4
:103800003AF0805AE06950EA0A0AA06950EA0A0AC6
:10381000D346C9F800B002F0B5FF8246D9F80000DF
:10382000A16910EA410F07D102F0ACFFB0EB0A002A
:103830001528F3D30320D1E1A06946403BEA060BEB
:10384000C9F800B002F09EFF0500D9F8000010EAA8
:10385000460F1AD002F096FF401B1528F5D303201F
:10386000BCE1D3463BEA060BC9F800B002F08AFF80
:103870000500D9F8000010EA460F06D002F082FFDA
:10388000401B1528F5D30320A8E19DF8000001286E
:1038900005D1DFF87006016831F00401016020787D
:1038A000400740F1A68000208DF80000DFF8549614
:1038B000D9F8000040070ED4D9F8000050F00400F9
:1038C000C9F80000D9F8000010F004000390039834
:1038D00001208DF80000DFF830A6DAF80000C007FC
:1038E00013D4DAF8000050F00100CAF8000002F02A
:1038F00049FF0500DAF80000C00706D402F042FFD5
:10390000401B0328F6D3032068E1E068002837D085
:10391000DFF800A6DAF8001031F08001E06801431A
:103920008B46CAF800B002F02DFF0500DAF800005F
:10393000800708D402F026FF401B41F289318842FB
:10394000F4D303204AE1207B00060CD5DAF800000E
:10395000000544D402F016FF401B41F28931884231
:10396000F4D303203AE1DAF80000000537D502F07D
:1039700009FF401B41F289318842F4D303202DE135
:10398000DFF890A5DAF8000030F08100CAF80000F6
:10399000DAF8000030F00400CAF8000002F0F2FE8D
:1039A0000500DAF80000800708D502F0EBFE401BA6
:1039B00041F289318842F4D303200FE1DAF80000A4
:1039C00000060CD5DAF80000000508D502F0DAFE92
:1039D000401B41F289318842F4D30320FEE09DF878
:1039E0000000012805D1D9F8000030F00400C9F822
:1039F0000000206A002800F0F08002980C2800F0F7
:103A00009780206A022875D1DFF840A4DAF8000018
:103A100030F080708346CAF800B002F0B3FE8146F1
:103A2000DAF80000834602F0ADFEB0EB090003288F
:103A300001D30320D2E05FEA8B10F1D4606A03283F
:103A400007D1DFF834045946090D11F00101C840CF
:103A500001E0DFF81804A16AB0FBF1F0DFF8BC1454
:103A6000884201D30C2700E00027D8F80010DFF8C7
:103A7000B0040140606A01433943A06A401E51EA24
:103A8000002151F48021C8F80010E06A401E226B2A
:103A9000521E50EA4220626B521E50EA0240A26B54
:103AA000521E50EA026001900198DFF8BC231060BA
:103AB000E06B00280AD0E06BC000DFF868140860F3
:103AC000D8F8000050F01000C8F80000DAF8000044
:103AD00050F08070CAF8000002F054FE0500DAF8D9
:103AE0000000800179D402F04DFE401B0328F6D37C
:103AF000032073E0DFF85493D9F8000030F08070B1
:103B0000C9F8000002F03EFE0500D9F8000080016F
:103B100006D502F037FE401B0328F6D303205DE0F4
:103B2000D8F80010DFF800040140C8F8001054E095
:103B3000206A012801D1012050E0D8F80010DFF8F8
:103B400028030068019011F00300626A904221D1BD
:103B5000C1F30220A26A521E90421BD10198C005F7
:103B6000C00DE26A521E904214D10198C0F3462063
:103B7000226B521E90420DD10198C0F30640626B39
:103B8000521E904206D10198C0F30660A26B521EED
:103B9000904201D0012021E0DFF88893D9F800009D
:103BA000C0F3CC0BE06B584517D0D8F8000030F0CC
:103BB0001000C8F8000002F0E5FD050002F0E2FD8B
:103BC000401B0028FAD0E06BC000C9F80000D8F80C
:103BD000000050F01000C8F80000002005B0BDE85B
:103BE000F08F2DE9F84F04000E00002C01D10120C8
:103BF000D4E0DFF838A3DAF8000010F00F00B0428C
:103C00000ED2DAF80000000900013043CAF80000C3
:103C1000DAF8000010F00F00B04201D00120BDE042
:103C20002078800609D5DFF838120A6832F01702CA
:103C3000A0690243E06902430A602078C00759D5B1
:103C4000DFF8EC02006883466068032815D15FEA5C
:103C50008B1001D40120A1E0DFF8F801006810F01A
:103C60000C006168B0EB810F14D0DFF8F80101217E
:103C7000026861F3155202600CE06068022804D10A
:103C80005FEA8B3006D4012088E05FEA4B5001D414
:103C9000012083E06F4D296889088900606801432D
:103CA000296002F06FFD0700286810F00C006168C1
:103CB000B0EB810F08D002F065FDC01B41F28931E5
:103CC0008842F1D3032069E06068032812D1DFF84D
:103CD0009451286830F48010286002F053FD0700EA
:103CE0002868400206D402F04DFDC01B0B28F7D314
:103CF000032053E0DFF86081D8F800900025207899
:103D0000800708D55FEAD9095FEAC909A06850EAC7
:103D10000909012005002078400706D539F070090F
:103D2000E06850EA0909012005002078000706D55F
:103D300039F4E069206959EA001901200500002DD5
:103D400001D0C8F800902078C00602D560694349C8
:103D50000860DAF8000010F00F0086420ED2DAF8A0
:103D60000000000900013043CAF80000DAF8000042
:103D700010F00F00B04201D001200FE000F010F869
:103D8000DFF8B011D8F8002012F00702895CC840B3
:103D9000374908603748006800F0E4F9BDE8F28F61
:103DA00010B52C48046814F00C04002C01D12F48E5
:103DB0000CE0082C08D13048DFF874110968090DAF
:103DC00011F00101C84001E000F030F810BD80B5ED
:103DD000FFF7E6FF2649574A1F4B1B6813F00703FE
:103DE000D25CD0400860086802BD80B5FFF7EFFFE5
:103DF0005149194A1268C2F30212895CC84002BDD7
:103E000080B5FFF7E4FF4C49134A1268C2F302225F
:103E1000895CC84002BD80B5FFF7D9FF46490F4A0B
:103E20001268C2F30212895CC84002BD10B5434853
:103E30000068C0F30664641C00F020F8BCEEC00A01
:103E400010EE100AB0FBF4F010BD0000000C0246AA
:103E5000100C02461C0C0246200C0246240C0246A2
:103E6000000E0246280C0246340C02460024F400E0
:103E7000B8150020B01500200048E8012F48006860
:103E8000C105C90D491C00EE101AB8EE402A2C4994
:103E90000968C1F30222521C00EE902AF8EE601A63
:103EA000CA0606D51F480068C0F3CC0001EE100A10
:103EB00001E09FED161AF8EE410A11F00300022806
:103EC00002D0032803D010E09FED110A0FE01D4837
:103ED000174A1268120D12F00102D04000EE100ACB
:103EE000B0EE401AB8EE410A01E09FED080A80EEFC
:103EF000210ADFED091AC0EEA10A70EE820A20EE57
:103F0000200A7047940C0246280802460000000070
:103F10000024744BF00C02460000004601127A00A7
:103F2000E0F8FFFF380C0246FCFFF8FF00200240DB
:103F3000000C02460006030808060308340C02467B
:103F4000280C02460048E80110B410F00703DFF81F
:103F5000E84122684FF6FF010A4052EA0322DFF8E7
:103F6000DC110A43226010BC7047DFF8CC01006806
:103F7000C0F3022070470000010049B200290AD4B2
:103F8000012210F01F018A40DFF8B41103005BB278
:103F90005B0941F823207047010049B200290ED483
:103FA000012210F01F018A40DFF8981103005BB274
:103FB0005B0941F82320BFF34F8FBFF36F8F70472A
:103FC000010049B200290AD4012210F01F018A40E1
:103FD000DFF8741103005BB25B0941F823207047DE
:103FE00010B4020052B2002A05D40A01574B040053
:103FF00064B21A5508E00A01554B040064B214F08B
:104000000F04234403F8042C10BC704770B4030061
:1040100013F00704D4F10700052801D3042001E0C0
:10402000D4F10700251D072D01D2002500E0E51E73
:10403000012616FA00F0401E0140A94016FA05F5C7
:104040006D1E2A401143080070BC704710B5040073
:104050002000FFF779FF10BDF8B504000D00160031
:10406000FFF783FF070017F0070732002900380029
:10407000FFF7CCFF0100200040B2FFF7B1FFF1BD18
:1040800010B50400200040B2FFF776FF10BD10B558
:104090000400200040B2FFF77FFF10BD0100481E62
:1040A000B0F1807F01D301200BE0481E294A106047
:1040B0000020294A10602948026852F00302026079
:1040C0000020704710B50400200040B2FFF778FFD1
:1040D00010BD010000290BD0012914D002291ED0E7
:1040E000042928D11D490A6852F004020A6022E01E
:1040F0001A490A6832F004020A6019490A6832F45F
:1041000040020A6017E015490A6832F004020A60AA
:10411000134901220B6862F397530B600BE00F49C0
:104120000A6832F004020A600D4902220B6862F349
:1041300097530B60FFE770470CED00E00000FA05B5
:1041400000E100E080E100E000E200E000E400E0E7
:1041500018ED00E014E000E018E000E010E000E0FE
:10416000E00C024670B5050000262B4908780028AF
:1041700001D101204EE02948006840070AD54FF4DC
:104180007A700978B0FBF1F025490968B1FBF0F0CD
:1041900006002FE02348006810F4400004002000CF
:1041A000002806D0B0F5800F0ED0B0F5000F16D065
:1041B00020E04FF4FA500978B0FBF1F01849096893
:1041C000B1FBF0F0060015E04FF47A700978B0FB0F
:1041D000F1F04FF4FA41B1FBF0F006000AE04FF4C1
:1041E0007A700978B0FBF1F04FF40041B1FBF0F0C8
:1041F0000600FFE73000FFF751FF002801D0012043
:1042000008E0002229005FF0FF30FFF725FF064895
:104210000560002070BD00BFA515002010E000E083
:10422000B8150020E00C0246B01500202DE9F84F2B
:1042300005002878C00707D5DFF8D4120A6892086D
:104240009200686802430A602878800707D5DFF883
:10425000C0120A6832F00C02A86802430A6028788B
:10426000400707D5DFF8A8120A6832F44062E86810
:1042700002430A602878000707D5DFF894120A681D
:1042800032F44022286902430A602878C00607D524
:10429000DFF87C120A6832F44012686902430A604F
:1042A0002878800607D5DFF868120A6832F44002E1
:1042B000A86902430A602878400607D5DFF8501243
:1042C0000A6822F00042E86902430A602878000682
:1042D0001AD5DFF840120A6832F0E002286A024379
:1042E0000A60286A002806D1DFF82C02016851F420
:1042F0008031016008E0286A202805D1DFF8180223
:10430000016851F4003101602868C00511D5DFF85B
:1043100004120A6832F44052686A02430A60686A0A
:10432000B0F5405F05D1DFF8F001016851F40031CC
:1043300001602868800207D5DFF8D8110A6832F0DA
:104340008042A86A02430A602868800507D5DFF822
:10435000CC110A6892089200E86A02430A60286851
:10436000400507D5DFF8B4110A6832F01802286B4F
:1043700002430A602868000507D5DFF8A0110A6823
:1043800032F0C002686B02430A602868C00407D597
:10439000DFF888110A6832F44062A86B02430A60B1
:1043A0002868800411D5DFF874110A6832F4E042FD
:1043B000E86B02430A60E86BB0F5005F05D1DFF8F7
:1043C0005801016851F4803101602868400474D5B7
:1043D0005FF00008DFF84891D9F8000010F4407051
:1043E0000400286C844268D0DFF838A1DAF80000B5
:1043F00040070DD4DAF8000050F00400CAF80000BD
:10440000DAF8000010F004000090009801208046C7
:10441000DFF814B1DBF8000050F00100CBF8000029
:1044200002F0B0F90700DBF80000C00706D402F084
:10443000A9F9C01B0328F6D3032052E0D9F80000E5
:1044400030F440700600002C10D0DFF8E000016866
:104450000C00D9F8001051F48031C9F80010D9F8D7
:10446000001031F48031C9F800100460286C30432A
:10447000C9F80000DFF8B80050F0005030400400E8
:10448000002C10D002F07EF90700D9F8000010EAE5
:10449000440F08D102F076F9C01B41F289318842FD
:1044A000F3D303201DE04046C0B2012805D1DAF85D
:1044B000000030F00400CAF80000286800040FD59E
:1044C000DFF85C100A6832F44022686C02430A602C
:1044D000086810F44020696C884201D0012000E097
:1044E0000020BDE8F28F13490A6832F47C1252EAC8
:1044F00000420A6070471048016851F002010160F3
:1045000070470D48016831F00201016070470000FA
:10451000E00C0246E40C0246280C0246E80C024677
:10452000F00C0246940C024628080246F80C02469B
:1045300001000004100E0246080E02460100002091
:104540000A4A1368DB0702D50122100004E0136851
:1045500033F004030B431360C0B270470348016893
:1045600051F0010101600020704700000004034089
:1045700010B50400002C01D1012009E002202071B7
:10458000200006F02AFB0020A060012020710020FE
:1045900010BD02001079012807D1022010711068A7
:1045A000016001201071002002E0022090600120D3
:1045B00070470068006810F4E020704770B5040090
:1045C000002C01D1012060E0607A002804D1002095
:1045D0002072200006F00EFB022060722068006846
:1045E00030F0040021680860206801682748014015
:1045F0006068014341F0804151F40051206801603E
:104600002068006830F080402168086002F0BAF845
:1046100005002068006840000ED502F0B3F8401B8A
:104620000B28F6D3206800684000F2D501206072A4
:104630000220E060012028E02068006850F00400BB
:104640002168086020684068400603D50420607235
:1046500001201AE002F096F8060020684068400742
:104660000ED502F08FF8801B0B28F6D32068406827
:104670004007F2D5042060720220E060012004E0CF
:10468000012060720020E060002070BDDF1FFFBFCE
:10469000B748016851F4807101607047B448006800
:1046A000800A10F00100704781B0B2490A680243E5
:1046B0000A60096801400091009901B07047AD4956
:1046C0000A6882430A607047016851F00401016082
:1046D0007047016831F0040101607047406810F0D4
:1046E000010070474068400810F0010070474068C2
:1046F000800910F0010070477FF020014160704791
:104700007FF04001416070478068704780B50420A9
:1047100006F0AEFC9848FFF7DCFF012000F01CF823
:10472000042006F0A6FC01BD70B50400934D06F010
:10473000A4FCEFF3108672B695F88200002803D12E
:104740005FF48020FFF7B0FF95F88200204385F8E2
:10475000820086F3108870BD70B50400874DEFF3BA
:10476000108072B695F88210A14385F8821080F30C
:10477000108895F88200002801D100F010F8EFF3BE
:10478000108672B695F88200002803D15FF480206D
:10479000FFF795FF86F3108806F07AFC70BD81B0B4
:1047A000B22000900098002803D00098401E00908E
:1047B000F8E701B070472DE9F0410400002694F8B5
:1047C000810000280FD1032006F052FC0120FFF7E2
:1047D000ABFF6948FFF778FF032006F04AFC012091
:1047E00084F881004CE0644F3800FFF77BFF00281D
:1047F00006D03800FFF780FF40F2011006003FE0CE
:104800003800FFF774FF00280FD03800FFF778FF5B
:104810000C200500012D04DB3800FFF775FF6D1E2D
:10482000F8E74FF4817006002AE094F88000202811
:1048300021DAEFF3108872B6052006F019FC94F81F
:104840008000202811DA3800FFF748FF00280CD03C
:104850003800FFF759FF94F8801044F8210094F8CD
:104860008000401C84F88000E9E7052006F001FC88
:1048700088F3108804E0FFF749FF002084F88100E6
:104880003000BDE8F08110B53C4C002084F8800079
:10489000002084F881000020C4F88400002084F8FF
:1048A00082002000FFF787FFC4F8840094F881009D
:1048B000002803D0D4F884000028F2D010BDF8B549
:1048C00007000D002D4E3800471EC0B2002822D030
:1048D000EFF3108172B696F8800000280CD140F2F8
:1048E0000310C6F884003800C0B210F01F0056F85C
:1048F0002000C043040009E096F88000401E86F8BE
:10490000800096F8800056F82000040081F310889B
:104910002C602D1DD7E7FEF74CFAF1BD70B5174D91
:10492000002495F88100002803D195F88000202804
:1049300018DAEFF3108672B6D5F884000400002070
:10494000C5F8840086F31088002C0BD12800FFF7EF
:1049500032FF0400002C05D195F88100002801D019
:1049600001200400002C01D0FEF723FA200070BDC6
:10497000000C02468C0C024600080C42ECA30020FE
:104980002DE9F04104000125002C61D094F82D00A0
:10499000002805D1002084F82C00200006F050F9F2
:1049A000022084F82D00DFF8C4633068C00646D4C6
:1049B000DFF8BC73CA20386053203860200000F054
:1049C0007FF905002800C0B2002835D1DFF8A483A4
:1049D000D8F80010DFF8A0030140C8F80010D8F89C
:1049E00000106068014320690143A0690143C8F8D1
:1049F0000010E068A16850EA0140DFF88013086009
:104A0000316831F4F851606A0143A06A01433160B2
:104A1000200000F07DF905002800C0B200280BD16D
:104A2000D8F8001021F06041206A0143E069014399
:104A300060690143C8F80010FF20386001E00020E1
:104A400005002800C0B2002802D1012084F82D0002
:104A50002800C0B2BDE8F0812DE9F84F05000E0036
:104A60001400002795F82C00012801D10220C2E093
:104A7000012085F82C00022085F82D00DFF8EC02DB
:104A8000D0F8008018F44078B8F5807F4FD0002C23
:104A900033D1DFF8E0020068400601D40020F07056
:104AA000306A0028FFD0307800F07AF981467078BB
:104AB00000F076F98246B07800F072F9834696F8F5
:104AC000240000F06DF95FFA89F95FFA8AFA5FEA6B
:104AD0000A2A5AEA094A5FFA8BFB5BEA0A0AF1786A
:104AE0005AEA815AC0B25AEA006A306A50EA0A0A9F
:104AF000706950EA0A0A574619E0DFF87802006840
:104B0000400601D40020F07030787178090251EA33
:104B10000041B0780143F07851EA805196F82400C2
:104B200051EA0061306A0143706901430F00F06A85
:104B3000B0F5807F2FD1DFF83C12086830F4885040
:104B400008600120DFF848221060B8F5807F06D1A8
:104B5000B269F0690243DFF83002026006E0DFF874
:104B600020020760B069DFF8202210607068DFF86B
:104B700024221060B06A012804D1086850F0006057
:104B8000086003E0086830F000600860086850F4CE
:104B90008850086028E07749086830F408500860B9
:104BA00002207B4A1060B8F5807F05D1B269F069B8
:104BB00002437648026004E072480760B069734AB5
:104BC00010607068744A1060B06A012804D10868E7
:104BD00050F08050086003E0086830F080500860B2
:104BE000086850F408500860012085F82D00002066
:104BF00085F82C000020BDE8F28F020092F82C000E
:104C0000012801D1022024E0012082F82C0002209A
:104C100082F82D00B1F5807F0AD15648036833F43D
:104C2000885303605848036823F00043036009E099
:104C30005048036833F4085303605448036823F072
:104C400000430360012082F82D00002082F82C0030
:104C50000020704738B5040050480568E80705D5BE
:104C600001204B490860200006F09EFAA80705D5F0
:104C7000022047490860200006F0B6FA012084F8B7
:104C80002D0031BD70B50400384E306830F0200082
:104C9000306001F077FD0500306880060ED401F029
:104CA00071FD401B40F2E9318842F5D3306880063F
:104CB00004D4032084F82D00032000E0002070BD00
:104CC000F8B504000026294F386840061DD438681E
:104CD00050F08000386001F055FD0500386840064E
:104CE00013D43000C0B203280FD001F04BFD401B9D
:104CF00040F2E9318842F1D33868400605D40320F8
:104D00000600032084F82D00E8E73000C0B2F2BDB1
:104D100070B5040000251548016831F0800101607C
:104D2000144E306880060AD42000FFF7ABFF00283D
:104D300017D0032084F82D000320050011E030680F
:104D400030F0200030602000FFF79CFF002804D0E6
:104D5000032084F82D0003200500306850F0200067
:104D600030602800C0B270BD000000000C78004622
:104D70002478004618780046BFFF8FFB1078004665
:104D80004078004648780046447800464C78004613
:104D90005C78004670780046747800465478004687
:104DA0000100002208000300DBB20A2B02D3521CD0
:104DB0000A38F8E750EA0210C0B27047010091F8D3
:104DC0002C00012801D1022012E0012081F82C00E2
:104DD000022081F82D00DFF89400026852F02002D2
:104DE0000260012081F82D00002081F82C000020B5
:104DF0007047010091F82C00012801D1022012E037
:104E0000012081F82C00022081F82D00DFF85C00E1
:104E1000026852F080020260012081F82D0000201B
:104E200081F82C0000207047124B13EB81031A60AD
:104E3000704710B402000B68486803430E480360D3
:104E40008B68C8680343886903430C480360084BB8
:104E50001C6834F0FF1408690443486954EA0044AC
:104E60001C60002010BC704700000000187800464D
:104E7000207C0046007D00461C780046247C0046CD
:104E800010B50400002C01D1012043E0A0690028E6
:104E9000FFD1D4F88800002811D1002084F88400C4
:104EA000200000F051FBD4F8C000002803D1DFF847
:104EB0000003C4F8C0002000D4F8C01088472420A4
:104EC000C4F8880020680068400840002168086035
:104ED000A06A002802D0200000F0ECFC200000F0C6
:104EE00063FB012801D1012014E02068406830F400
:104EF0009040216848602068806830F02A0021686E
:104F000088602068006850F0010021680860200077
:104F100000F03DFD10BD10B50400002C01D10120B2
:104F20002EE02420C4F88800206800684008400073
:104F3000216808600020216808600020216848601E
:104F4000002021688860D4F8C400002803D1DFF86D
:104F50006402C4F8C4002000D4F8C41088470020BC
:104F6000C4F890000020C4F888000020C4F88C0029
:104F70000020E06600202067002084F884000020E4
:104F800010BD30B40300D3F88800202850D1002988
:104F900003D0100080B2002801D1012049E019653A
:104FA000A3F85420A3F85620002098670020C3F8E7
:104FB00090002120C3F88800586EB0F1005F1CD12A
:104FC0009868B0F5805F06D11869002803D1DFF832
:104FD000E801986702E0DFF8E40198671868083094
:104FE00050E8000F50F400000400186810F10805A4
:104FF00045E800400028F1D118E09868B0F5805FDE
:1050000006D11869002803D1DFF8B401986702E0DF
:10501000DFF8B0019867186850E8000F50F0800082
:1050200004001D6845E800400028F4D1002000E09D
:10503000022030BC704770B505000C001600D5F892
:105040008C00202824D1002C03D0300080B200280E
:1050500001D101201DE00020E8662868DFF8681112
:1050600088420ED02868406800020AD5286850E8B7
:10507000000F50F0806001002A6842E8001000280C
:10508000F4D1320092B22100280000F03AFD00E095
:10509000022070BD2DE9F04105000C001600B0465D
:1050A000D5F88800202840F07F80002C03D0300005
:1050B00080B2002801D1012077E02C65A5F854606A
:1050C000A5F856600020C5F890002120C5F888009A
:1050D000E86F002855D0DFF8F400E96F0866DFF8C4
:1050E000F000E96F4866DFF8EC00E96F88660020A1
:1050F000E96FC866A868B0F5805F05D12869002807
:1051000002D1B6B270008046E86F90F850000006F9
:1051100021D5E86F406F00281AD0E86F406F006813
:10512000002815D0404680B2E96F496F0968886051
:10513000286DE96F496F0968C86028682830E96FF1
:10514000496F09680861E86F06F052F807000CE043
:105150000120070009E043469BB2286810F12802AD
:10516000296DE86F06F082F907003800C0B2002808
:1051700007D01020C5F890002020C5F88800012035
:1051800013E04020296808622868083050E8000FC2
:1051900050F080000100286810F1080242E8001079
:1051A0000028F1D1002000E00220BDE8F0810000DD
:1051B0009DAC000823AE0008535F0008D55E0008D0
:1051C000715E0008195E000800240046495D000871
:1051D000995D0008A95D00082DE9F04706003068D8
:1051E000C7693068D0F800803068D0F8089040F681
:1051F0000F043C40002C0ED1B8060CD55FEA886045
:1052000002D45FEAC90006D5706F002802D03000D2
:10521000716F884796E1002C00F0B580DFF88806B2
:1052200019EA000F05D1DFF8841618EA010F00F023
:10523000AA8017F00101C9B200290BD05FEAC8515A
:1052400008D5012132681162D6F8901051F00101A1
:10525000C6F89010B9070DD519F00101C9B200299F
:1052600008D0022132681162D6F8901051F0040182
:10527000C6F8901079070DD519F00101C9B20029BF
:1052800008D0042132681162D6F8901051F0020162
:10529000C6F8901039070ED55FEA886102D419EA82
:1052A000000F08D0082031680862D6F8900050F04E
:1052B0000800C6F8900038050CD55FEA481009D5FB
:1052C0004FF4006031680862D6F8900050F020007A
:1052D000C6F89000D6F89000002853D0B8060BD539
:1052E0005FEA886002D45FEAC90005D5706F0028C4
:1052F00002D03000716F8847D6F890000500306802
:105300008068400602D415F0280F34D0300000F039
:10531000C2FC30688068400628D53068083050E804
:10532000000F30F040000100306810F1080242E840
:1053300000100028F1D1D6F88000002811D0DFF845
:105340007005D6F88010C866D6F8800006F02EF9F1
:10535000002817D0D6F88000D6F88010C96E88478C
:1053600010E03000D6F8A41088470BE03000D6F8E3
:10537000A410884706E03000D6F8A4108847002023
:10538000C6F89000DEE0F06E012840F0AF80F8062D
:1053900040F1AC805FEAC86040F1A880102031681D
:1053A00008623068806840065DD5D6F880000068E5
:1053B000D0F848A0504680B2002853D05046B6F8E6
:1053C0005C1080B288424DD2A6F85EA0D6F880006C
:1053D000006D81283AD0306850E8000F30F48070BA
:1053E0000100326842E800100028F4D1306808302B
:1053F00050E8000F400840000100306810F108023A
:1054000042E800100028F1D13068083050E8000F61
:1054100030F040000100306810F1080242E800104E
:105420000028F1D12020C6F88C000020F0663068FA
:1054300050E8000F30F010000100326842E8001020
:105440000028F4D1D6F8800006F058F80220306722
:10545000B6F85C10B6F85E00091A89B23000D6F8CA
:10546000BC2090476EE0B6F85C00B6F85EA0B0EBEA
:105470000A0AB6F85E00002837D0504680B20028ED
:1054800033D0306850E8000F30F49070010032687B
:1054900042E800100028F4D13068083050E8002FAE
:1054A000DFF8000102401100306810F1080242E804
:1054B00000100028F0D12020C6F88C000020F066F3
:1054C00000207067306850E8000F30F010000100D5
:1054D000326842E800100028F4D1022030675146BB
:1054E00089B23000D6F8BC2090472BE038060CD5A6
:1054F0005FEA086002D45FEA092006D5B06F002891
:1055000002D03000B16F88471CE0780606D55FEA0C
:10551000486003D5300000F05EFD13E0380207D587
:105520005FEA480004D53000D6F8B810884709E093
:10553000F80107D5B8F1000F04D53000D6F8B41043
:105540008847FFE7BDE8F087DFF8B017C0F8941090
:10555000DFF8AC17C0F89810DFF8A817C0F89C1057
:10556000DFF8A417C0F8A010DFF8A017C0F8A41047
:10557000DFF89C17C0F8A810DFF89817C0F8AC1037
:10558000DFF89417C0F8B010DFF89017C0F8B41027
:10559000DFF88C17C0F8B810DFF88817C0F8BC1017
:1055A00070470000FEFFFFEF2DE9F84F04000026D2
:1055B000DFF8441720688842FFD0A26820690243C0
:1055C00060690243E069024320680368DFF8580716
:1055D00003401343206803602068436833F440535A
:1055E000E068034320684360D4F81880206888424C
:1055F00002D0206A50EA080820688268DFF82C0789
:10560000024058EA0202206882602068C26A1209D9
:105610001201606A02432068C2622068DFF8102726
:10562000904216D1DFF80C07006810F00300002844
:1056300005D0022805D006D3032806D007E00127AD
:105640003FE004273DE008273BE0102739E0202712
:1056500037E02068DFF8E026904217D1DFF8D40663
:10566000006810F00C00002806D0042808D0082894
:1056700004D00C2806D007E0002722E0042720E011
:1056800008271EE010271CE020271AE02068884227
:1056900016D1DFF8A806006810F00300002805D036
:1056A000022805D006D3032806D007E0022708E029
:1056B000042706E0082704E0102702E0202700E086
:1056C00020272068884253D13800C0B2022806D073
:1056D000042808D0082809D010280BD00DE0FEF7C8
:1056E0009AFB81460DE0DFF858960AE0FEF758FB7A
:1056F000814606E04FF4004903E05FF00009012015
:105700000600B9F1000F00F0C180DFF83816606ABA
:1057100031F81000B9FBF0F0824662680320424382
:10572000924505D362684FF480504243524502D2FD
:1057300001200600AAE0606A31F81000B9FBF0F21F
:105740004FF48073606840080021E3FB0201626847
:10575000002306F009F90500B5F5407F05D3B5F53E
:10576000801F02D22068C56090E0012006008DE015
:10577000E069B0F5004F49D13800C0B2002808D028
:1057800001280AD004280CD008280DD010280FD0EA
:1057900011E0FEF72AFB814611E0FEF731FB81465E
:1057A0000DE0DFF89C950AE0FEF7FAFA814606E084
:1057B0004FF4004903E05FF0000901200600B9F151
:1057C000000F63D0DFF87C05616A30F81100B9FB87
:1057D000F0F06168490811EB40016068B1FBF0F03E
:1057E0000500102D0FD3B5F5803F0CD24FF6F071A8
:1057F00029402800C0F3420001438B46584680B23E
:105800002168C86042E0012006003FE03800C0B2D5
:10581000002808D001280AD004280CD008280DD070
:1058200010280FD011E0FEF7E0FA814611E0FEF7F4
:10583000E7FA81460DE0DFF808950AE0FEF7B0FAD6
:10584000814606E04FF4004903E05FF000090120C3
:105850000600B9F1000F19D0DFF8E804616A30F8EA
:105860001100B9FBF0F0616810EB51006168B0FB0A
:10587000F1F00500102D07D3B5F5803F04D22800C4
:1058800080B22168C86001E0012006000120A4F870
:105890006A000120A4F86800002060670020A0676B
:1058A0003000C0B2BDE8F28F0100001020010004FA
:1058B000FD5D000890F82810090707D501684A68BF
:1058C00032F40042816B0A4301684A6090F8281064
:1058D000C90707D501684A6832F40032C16A0A4331
:1058E00001684A6090F82810890707D501684A685E
:1058F00032F48032016B0A4301684A6090F8281044
:10590000490707D501684A6832F48022416B0A438F
:1059100001684A6090F82810C90607D501688A68AE
:1059200032F48052C16B0A4301688A6090F82810F3
:10593000890607D501688A6832F40052016C0A436F
:1059400001688A6090F82810490613D501684A68F2
:1059500032F48012416C0A4301684A60416CB1F52F
:10596000801F07D101684A6832F4C002816C0A4383
:1059700001684A6090F82810090607D501684A684E
:1059800032F40022C16C0A4301684A60704738B59E
:1059900004000020C4F8900000F0F4FE0500206828
:1059A000006800071ED57FF07E4000902B0000228B
:1059B0005FF40011200000F055F8002812D0206894
:1059C00050E8000F30F080000100226842E800102B
:1059D0000028F4D12020C4F88800002084F8840036
:1059E00003203EE02068006840072CD57FF07E4011
:1059F00000902B0000225FF48001200000F032F8BC
:105A0000002820D0206850E8000F30F4907001008A
:105A1000226842E800100028F4D12068083050E8DD
:105A2000000F400840000100206810F1080242E821
:105A300000100028F1D12020C4F88C00002084F848
:105A4000840003200DE02020C4F888002020C4F842
:105A50008C000020E06600202067002084F884008D
:105A6000002032BD2DE9F04105000E0090461F00D8
:105A7000069C2868C0693040B04201D1012000E096
:105A800000204146C9B2884238D114F1010FF0D04C
:105A900000F078FEC01B844201D3002C01D103200A
:105AA0002DE0286800684007E3D5802EE1D0402E25
:105AB000DFD02868C06900070DD508202968086272
:105AC000280000F0E8F80820C5F89000002085F8CC
:105AD0008400012013E02868C0690005C9D54FF48F
